{
  "_format": "hh-sol-artifact-1",
  "contractName": "Boost",
  "sourceName": "contracts/dao/Boost.sol",
  "abi": [
    {
      "inputs": [
        {
          "internalType": "address",
          "name": "_operatorMsg",
          "type": "address"
        },
        {
          "internalType": "address",
          "name": "__ve",
          "type": "address"
        },
        {
          "internalType": "address",
          "name": "_gauges",
          "type": "address"
        },
        {
          "internalType": "contract IToken",
          "name": "_swapToken",
          "type": "address"
        },
        {
          "internalType": "uint256",
          "name": "_tokenPerBlock",
          "type": "uint256"
        },
        {
          "internalType": "uint256",
          "name": "_startBlock",
          "type": "uint256"
        },
        {
          "internalType": "uint256",
          "name": "_period",
          "type": "uint256"
        }
      ],
      "stateMutability": "nonpayable",
      "type": "constructor"
    },
    {
      "anonymous": false,
      "inputs": [
        {
          "indexed": false,
          "internalType": "uint256",
          "name": "tokenId",
          "type": "uint256"
        },
        {
          "indexed": false,
          "internalType": "int256",
          "name": "weight",
          "type": "int256"
        }
      ],
      "name": "Abstained",
      "type": "event"
    },
    {
      "anonymous": false,
      "inputs": [
        {
          "indexed": true,
          "internalType": "address",
          "name": "pool",
          "type": "address"
        },
        {
          "indexed": false,
          "internalType": "uint256",
          "name": "point",
          "type": "uint256"
        }
      ],
      "name": "AddPool",
      "type": "event"
    },
    {
      "anonymous": false,
      "inputs": [
        {
          "indexed": false,
          "internalType": "address",
          "name": "_address",
          "type": "address"
        }
      ],
      "name": "ControllerAdded",
      "type": "event"
    },
    {
      "anonymous": false,
      "inputs": [
        {
          "indexed": false,
          "internalType": "address",
          "name": "_address",
          "type": "address"
        }
      ],
      "name": "ControllerRemoved",
      "type": "event"
    },
    {
      "anonymous": false,
      "inputs": [
        {
          "indexed": true,
          "internalType": "address",
          "name": "sender",
          "type": "address"
        },
        {
          "indexed": true,
          "internalType": "address",
          "name": "gauge",
          "type": "address"
        },
        {
          "indexed": false,
          "internalType": "uint256",
          "name": "amount",
          "type": "uint256"
        }
      ],
      "name": "DistributeReward",
      "type": "event"
    },
    {
      "anonymous": false,
      "inputs": [
        {
          "indexed": true,
          "internalType": "address",
          "name": "gauge",
          "type": "address"
        },
        {
          "indexed": false,
          "internalType": "address",
          "name": "creator",
          "type": "address"
        },
        {
          "indexed": true,
          "internalType": "address",
          "name": "pool",
          "type": "address"
        }
      ],
      "name": "GaugeCreated",
      "type": "event"
    },
    {
      "anonymous": false,
      "inputs": [
        {
          "indexed": true,
          "internalType": "address",
          "name": "sender",
          "type": "address"
        },
        {
          "indexed": true,
          "internalType": "address",
          "name": "reward",
          "type": "address"
        },
        {
          "indexed": false,
          "internalType": "uint256",
          "name": "amount",
          "type": "uint256"
        }
      ],
      "name": "NotifyReward",
      "type": "event"
    },
    {
      "anonymous": false,
      "inputs": [
        {
          "indexed": true,
          "internalType": "address",
          "name": "oldOperator",
          "type": "address"
        },
        {
          "indexed": true,
          "internalType": "address",
          "name": "newOperator",
          "type": "address"
        }
      ],
      "name": "SetOperatorContract",
      "type": "event"
    },
    {
      "anonymous": false,
      "inputs": [
        {
          "indexed": true,
          "internalType": "address",
          "name": "pool",
          "type": "address"
        },
        {
          "indexed": false,
          "internalType": "uint256",
          "name": "point",
          "type": "uint256"
        }
      ],
      "name": "SetPool",
      "type": "event"
    },
    {
      "anonymous": false,
      "inputs": [
        {
          "indexed": true,
          "internalType": "address",
          "name": "voter",
          "type": "address"
        },
        {
          "indexed": false,
          "internalType": "uint256",
          "name": "tokenId",
          "type": "uint256"
        },
        {
          "indexed": false,
          "internalType": "int256",
          "name": "weight",
          "type": "int256"
        }
      ],
      "name": "Voted",
      "type": "event"
    },
    {
      "inputs": [
        {
          "internalType": "address",
          "name": "_address",
          "type": "address"
        }
      ],
      "name": "addController",
      "outputs": [],
      "stateMutability": "nonpayable",
      "type": "function"
    },
    {
      "inputs": [
        {
          "internalType": "address",
          "name": "_target",
          "type": "address"
        }
      ],
      "name": "check",
      "outputs": [
        {
          "internalType": "bool",
          "name": "",
          "type": "bool"
        }
      ],
      "stateMutability": "view",
      "type": "function"
    },
    {
      "inputs": [
        {
          "internalType": "address[]",
          "name": "_gauges",
          "type": "address[]"
        }
      ],
      "name": "claimRewards",
      "outputs": [],
      "stateMutability": "nonpayable",
      "type": "function"
    },
    {
      "inputs": [
        {
          "internalType": "address",
          "name": "",
          "type": "address"
        }
      ],
      "name": "controllers",
      "outputs": [
        {
          "internalType": "bool",
          "name": "",
          "type": "bool"
        }
      ],
      "stateMutability": "view",
      "type": "function"
    },
    {
      "inputs": [
        {
          "internalType": "address",
          "name": "_pool",
          "type": "address"
        },
        {
          "internalType": "uint256",
          "name": "_allocPoint",
          "type": "uint256"
        },
        {
          "internalType": "bool",
          "name": "_withUpdate",
          "type": "bool"
        }
      ],
      "name": "createGauge",
      "outputs": [
        {
          "internalType": "address",
          "name": "",
          "type": "address"
        }
      ],
      "stateMutability": "nonpayable",
      "type": "function"
    },
    {
      "inputs": [
        {
          "internalType": "address",
          "name": "_gauge",
          "type": "address"
        }
      ],
      "name": "distribute",
      "outputs": [],
      "stateMutability": "nonpayable",
      "type": "function"
    },
    {
      "inputs": [],
      "name": "gaugeFactory",
      "outputs": [
        {
          "internalType": "address",
          "name": "",
          "type": "address"
        }
      ],
      "stateMutability": "view",
      "type": "function"
    },
    {
      "inputs": [
        {
          "internalType": "address",
          "name": "",
          "type": "address"
        }
      ],
      "name": "gauges",
      "outputs": [
        {
          "internalType": "address",
          "name": "",
          "type": "address"
        }
      ],
      "stateMutability": "view",
      "type": "function"
    },
    {
      "inputs": [
        {
          "internalType": "uint256",
          "name": "tokenId",
          "type": "uint256"
        }
      ],
      "name": "getPoolVote",
      "outputs": [
        {
          "internalType": "address[]",
          "name": "",
          "type": "address[]"
        }
      ],
      "stateMutability": "view",
      "type": "function"
    },
    {
      "inputs": [
        {
          "internalType": "address",
          "name": "",
          "type": "address"
        }
      ],
      "name": "isGauge",
      "outputs": [
        {
          "internalType": "bool",
          "name": "",
          "type": "bool"
        }
      ],
      "stateMutability": "view",
      "type": "function"
    },
    {
      "inputs": [
        {
          "internalType": "address",
          "name": "",
          "type": "address"
        }
      ],
      "name": "lpOfPid",
      "outputs": [
        {
          "internalType": "uint256",
          "name": "",
          "type": "uint256"
        }
      ],
      "stateMutability": "view",
      "type": "function"
    },
    {
      "inputs": [],
      "name": "massUpdatePools",
      "outputs": [],
      "stateMutability": "nonpayable",
      "type": "function"
    },
    {
      "inputs": [],
      "name": "minTokenReward",
      "outputs": [
        {
          "internalType": "uint256",
          "name": "",
          "type": "uint256"
        }
      ],
      "stateMutability": "view",
      "type": "function"
    },
    {
      "inputs": [],
      "name": "mintDuration",
      "outputs": [
        {
          "internalType": "uint256",
          "name": "",
          "type": "uint256"
        }
      ],
      "stateMutability": "view",
      "type": "function"
    },
    {
      "inputs": [],
      "name": "mintMulti",
      "outputs": [
        {
          "internalType": "uint256",
          "name": "",
          "type": "uint256"
        }
      ],
      "stateMutability": "view",
      "type": "function"
    },
    {
      "inputs": [],
      "name": "operatable",
      "outputs": [
        {
          "internalType": "contract Operatable",
          "name": "",
          "type": "address"
        }
      ],
      "stateMutability": "view",
      "type": "function"
    },
    {
      "inputs": [],
      "name": "operator",
      "outputs": [
        {
          "internalType": "address",
          "name": "",
          "type": "address"
        }
      ],
      "stateMutability": "view",
      "type": "function"
    },
    {
      "inputs": [],
      "name": "owner",
      "outputs": [
        {
          "internalType": "address",
          "name": "",
          "type": "address"
        }
      ],
      "stateMutability": "view",
      "type": "function"
    },
    {
      "inputs": [],
      "name": "period",
      "outputs": [
        {
          "internalType": "uint256",
          "name": "",
          "type": "uint256"
        }
      ],
      "stateMutability": "view",
      "type": "function"
    },
    {
      "inputs": [],
      "name": "periodEndBlock",
      "outputs": [
        {
          "internalType": "uint256",
          "name": "",
          "type": "uint256"
        }
      ],
      "stateMutability": "view",
      "type": "function"
    },
    {
      "inputs": [
        {
          "internalType": "uint256",
          "name": "_tokenId",
          "type": "uint256"
        }
      ],
      "name": "poke",
      "outputs": [],
      "stateMutability": "nonpayable",
      "type": "function"
    },
    {
      "inputs": [
        {
          "internalType": "address",
          "name": "",
          "type": "address"
        }
      ],
      "name": "poolForGauge",
      "outputs": [
        {
          "internalType": "address",
          "name": "",
          "type": "address"
        }
      ],
      "stateMutability": "view",
      "type": "function"
    },
    {
      "inputs": [
        {
          "internalType": "uint256",
          "name": "",
          "type": "uint256"
        }
      ],
      "name": "poolInfo",
      "outputs": [
        {
          "internalType": "address",
          "name": "lpToken",
          "type": "address"
        },
        {
          "internalType": "uint256",
          "name": "allocPoint",
          "type": "uint256"
        },
        {
          "internalType": "uint256",
          "name": "lastRewardBlock",
          "type": "uint256"
        }
      ],
      "stateMutability": "view",
      "type": "function"
    },
    {
      "inputs": [],
      "name": "poolLength",
      "outputs": [
        {
          "internalType": "uint256",
          "name": "",
          "type": "uint256"
        }
      ],
      "stateMutability": "view",
      "type": "function"
    },
    {
      "inputs": [
        {
          "internalType": "uint256",
          "name": "",
          "type": "uint256"
        },
        {
          "internalType": "uint256",
          "name": "",
          "type": "uint256"
        }
      ],
      "name": "poolVote",
      "outputs": [
        {
          "internalType": "address",
          "name": "",
          "type": "address"
        }
      ],
      "stateMutability": "view",
      "type": "function"
    },
    {
      "inputs": [
        {
          "internalType": "address",
          "name": "_address",
          "type": "address"
        }
      ],
      "name": "removeController",
      "outputs": [],
      "stateMutability": "nonpayable",
      "type": "function"
    },
    {
      "inputs": [
        {
          "internalType": "uint256",
          "name": "_tokenId",
          "type": "uint256"
        }
      ],
      "name": "reset",
      "outputs": [],
      "stateMutability": "nonpayable",
      "type": "function"
    },
    {
      "inputs": [
        {
          "internalType": "uint256",
          "name": "_pid",
          "type": "uint256"
        },
        {
          "internalType": "uint256",
          "name": "_allocPoint",
          "type": "uint256"
        },
        {
          "internalType": "bool",
          "name": "_withUpdate",
          "type": "bool"
        }
      ],
      "name": "set",
      "outputs": [],
      "stateMutability": "nonpayable",
      "type": "function"
    },
    {
      "inputs": [
        {
          "internalType": "uint256",
          "name": "_block",
          "type": "uint256"
        }
      ],
      "name": "setHalvingPeriod",
      "outputs": [],
      "stateMutability": "nonpayable",
      "type": "function"
    },
    {
      "inputs": [
        {
          "internalType": "uint256",
          "name": "_reward",
          "type": "uint256"
        }
      ],
      "name": "setMinTokenReward",
      "outputs": [],
      "stateMutability": "nonpayable",
      "type": "function"
    },
    {
      "inputs": [
        {
          "internalType": "uint256",
          "name": "_multi",
          "type": "uint256"
        }
      ],
      "name": "setMintMulti",
      "outputs": [],
      "stateMutability": "nonpayable",
      "type": "function"
    },
    {
      "inputs": [
        {
          "internalType": "uint256",
          "name": "_duration",
          "type": "uint256"
        }
      ],
      "name": "setMitDuration",
      "outputs": [],
      "stateMutability": "nonpayable",
      "type": "function"
    },
    {
      "inputs": [
        {
          "internalType": "address",
          "name": "_oper",
          "type": "address"
        }
      ],
      "name": "setOperContract",
      "outputs": [],
      "stateMutability": "nonpayable",
      "type": "function"
    },
    {
      "inputs": [
        {
          "internalType": "uint256",
          "name": "_newPerBlock",
          "type": "uint256"
        },
        {
          "internalType": "bool",
          "name": "_withUpdate",
          "type": "bool"
        }
      ],
      "name": "setTokenPerBlock",
      "outputs": [],
      "stateMutability": "nonpayable",
      "type": "function"
    },
    {
      "inputs": [],
      "name": "startBlock",
      "outputs": [
        {
          "internalType": "uint256",
          "name": "",
          "type": "uint256"
        }
      ],
      "stateMutability": "view",
      "type": "function"
    },
    {
      "inputs": [],
      "name": "swapToken",
      "outputs": [
        {
          "internalType": "contract IToken",
          "name": "",
          "type": "address"
        }
      ],
      "stateMutability": "view",
      "type": "function"
    },
    {
      "inputs": [],
      "name": "tokenPerBlock",
      "outputs": [
        {
          "internalType": "uint256",
          "name": "",
          "type": "uint256"
        }
      ],
      "stateMutability": "view",
      "type": "function"
    },
    {
      "inputs": [],
      "name": "totalAllocPoint",
      "outputs": [
        {
          "internalType": "uint256",
          "name": "",
          "type": "uint256"
        }
      ],
      "stateMutability": "view",
      "type": "function"
    },
    {
      "inputs": [],
      "name": "totalWeight",
      "outputs": [
        {
          "internalType": "uint256",
          "name": "",
          "type": "uint256"
        }
      ],
      "stateMutability": "view",
      "type": "function"
    },
    {
      "inputs": [],
      "name": "updateAll",
      "outputs": [],
      "stateMutability": "nonpayable",
      "type": "function"
    },
    {
      "inputs": [
        {
          "internalType": "uint256",
          "name": "_pid",
          "type": "uint256"
        }
      ],
      "name": "updatePool",
      "outputs": [],
      "stateMutability": "nonpayable",
      "type": "function"
    },
    {
      "inputs": [
        {
          "internalType": "uint256",
          "name": "",
          "type": "uint256"
        }
      ],
      "name": "usedWeights",
      "outputs": [
        {
          "internalType": "uint256",
          "name": "",
          "type": "uint256"
        }
      ],
      "stateMutability": "view",
      "type": "function"
    },
    {
      "inputs": [],
      "name": "veToken",
      "outputs": [
        {
          "internalType": "address",
          "name": "",
          "type": "address"
        }
      ],
      "stateMutability": "view",
      "type": "function"
    },
    {
      "inputs": [
        {
          "internalType": "uint256",
          "name": "tokenId",
          "type": "uint256"
        },
        {
          "internalType": "address[]",
          "name": "_poolVote",
          "type": "address[]"
        },
        {
          "internalType": "int256[]",
          "name": "_weights",
          "type": "int256[]"
        }
      ],
      "name": "vote",
      "outputs": [],
      "stateMutability": "nonpayable",
      "type": "function"
    },
    {
      "inputs": [
        {
          "internalType": "uint256",
          "name": "",
          "type": "uint256"
        },
        {
          "internalType": "address",
          "name": "",
          "type": "address"
        }
      ],
      "name": "votes",
      "outputs": [
        {
          "internalType": "int256",
          "name": "",
          "type": "int256"
        }
      ],
      "stateMutability": "view",
      "type": "function"
    },
    {
      "inputs": [
        {
          "internalType": "address",
          "name": "",
          "type": "address"
        }
      ],
      "name": "weights",
      "outputs": [
        {
          "internalType": "int256",
          "name": "",
          "type": "int256"
        }
      ],
      "stateMutability": "view",
      "type": "function"
    }
  ],
  "bytecode": "0x61010060405267026db992a3b180006007556000600e55620313806011553480156200002a57600080fd5b5060405162002ff438038062002ff48339810160408190526200004d9162000215565b6001600081815581546001600160a01b0319166001600160a01b038a169081179092556040518992899288928892889288928892879287928792879287927f3ccbb406b985dd76fe05e172b432487a2ff9fe4257642d3acc350f167cb1d577908290a3506001600160a01b038416620000fd5760405162461bcd60e51b815260206004820152600e60248201526d073776170546f6b656e20697320360941b604482015260640160405180910390fd5b600280546001600160a01b0319166001600160a01b0386161790556003839055608082905260058190556200013f8282620001e7602090811b62001faa17901c565b60049081556103e86006556001600160a01b038b1660a081905260408051637e062a3560e11b8152905191975063fc0c546a96508083019550602094509092508290030181865afa15801562000199573d6000803e3d6000fd5b505050506040513d601f19601f82011682018060405250810190620001bf91906200029c565b6001600160a01b0390811660c0529a909a1660e05250620002e39a5050505050505050505050565b6000620001f58284620002bc565b9392505050565b6001600160a01b03811681146200021257600080fd5b50565b600080600080600080600060e0888a0312156200023157600080fd5b87516200023e81620001fc565b60208901519097506200025181620001fc565b60408901519096506200026481620001fc565b60608901519095506200027781620001fc565b809450506080880151925060a0880151915060c0880151905092959891949750929550565b600060208284031215620002af57600080fd5b8151620001f581620001fc565b60008219821115620002de57634e487b7160e01b600052601160045260246000fd5b500190565b60805160a05160c05160e051612c866200036e600039600081816102ff0152610993015260005050600081816103cb0152818161096301528181610d4d01528181610e4701528181610eca0152818161110301528181611ea10152818161219d0152612557015260008181610404015281816108010152818161082801526112240152612c866000f3fe608060405234801561001057600080fd5b506004361061028a5760003560e01c806371dd4bda1161015c578063aa70fb98116100ce578063da8c229e11610087578063da8c229e1461062c578063dc73e49c1461064f578063ef78d4fd14610662578063f6a74ed71461066b578063f9f031df1461067e578063fecdad601461069157600080fd5b8063aa70fb981461056c578063aa79979b1461057f578063b5ec5c99146105b2578063b9a09fd5146105c5578063c23697a8146105ee578063d23254b41461060157600080fd5b806393659cb81161012057806393659cb8146104f457806396c82e5714610514578063a7cac8461461051d578063a7fc7a071461053d578063a83ef51514610550578063a86a366d1461055957600080fd5b806371dd4bda1461049d57806379e93824146104b057806380a3e3ed146104d0578063812632ec146104e35780638da5cb5b146104ec57600080fd5b80633b92eb231161020057806351eb05a6116101b957806351eb05a61461044c57806353d786931461045f578063570ca73514610467578063630b5ba11461046f57806363453ae11461047757806364482f791461048a57600080fd5b80633b92eb23146103c65780634198709a146103ed578063442da82f146103f657806348cd4cb1146103ff57806348ee26a3146104265780634ade739b1461043957600080fd5b8063146650df11610252578063146650df146103365780631526fe271461035657806317caf6f11461038e578063310bd74b1461039757806332145f90146103aa57806337550684146103bd57600080fd5b806306d6a1b21461028f578063081e3eda146102d55780630c9c7ef5146102e75780630d52333c146102fa5780630f589d6314610321575b600080fd5b6102b861029d36600461268d565b6013602052600090815260409020546001600160a01b031681565b6040516001600160a01b0390911681526020015b60405180910390f35b600f545b6040519081526020016102cc565b6102b86102f53660046126b8565b6106a4565b6102b87f000000000000000000000000000000000000000000000000000000000000000081565b61033461032f36600461268d565b610b2a565b005b6103496103443660046126fa565b610c88565b6040516102cc9190612713565b6103696103643660046126fa565b610cf4565b604080516001600160a01b0390941684526020840192909252908201526060016102cc565b6102d9600e5481565b6103346103a53660046126fa565b610d31565b6103346103b83660046126fa565b610eae565b6102d960065481565b6102b87f000000000000000000000000000000000000000000000000000000000000000081565b6102d960035481565b6102d960045481565b6102d97f000000000000000000000000000000000000000000000000000000000000000081565b6001546102b8906001600160a01b031681565b610334610447366004612760565b611178565b61033461045a3660046126fa565b611222565b6103346115a1565b6102b861162e565b6103346116a1565b61033461048536600461268d565b6116c8565b610334610498366004612790565b6116d1565b6103346104ab3660046126fa565b6117c2565b6102d96104be3660046126fa565b600d6020526000908152604090205481565b6103346104de3660046126fa565b61185a565b6102d960075481565b6102b86118f2565b6102d961050236600461268d565b60106020526000908152604090205481565b6102d960095481565b6102d961052b36600461268d565b600a6020526000908152604090205481565b61033461054b36600461268d565b61193c565b6102d960115481565b6102b86105673660046127be565b611ace565b61033461057a3660046126fa565b611b06565b6105a261058d36600461268d565b60146020526000908152604090205460ff1681565b60405190151581526020016102cc565b6103346105c03660046126fa565b611b9e565b6102b86105d336600461268d565b6012602052600090815260409020546001600160a01b031681565b6105a26105fc36600461268d565b611c36565b6102d961060f3660046127e0565b600b60209081526000928352604080842090915290825290205481565b6105a261063a36600461268d565b60086020526000908152604090205460ff1681565b6002546102b8906001600160a01b031681565b6102d960055481565b61033461067936600461268d565b611cab565b61033461068c36600461281b565b611def565b61033461069f36600461292c565b611e85565b6001600160a01b03838116600090815260126020526040812054909116156106fc5760405162461bcd60e51b815260206004820152600660248201526565786973747360d01b60448201526064015b60405180910390fd5b6001600160a01b0384166107525760405162461bcd60e51b815260206004820152601c60248201527f5f6c70546f6b656e20697320746865207a65726f20616464726573730000000060448201526064016106f3565b6000846001600160a01b03166318160ddd6040518163ffffffff1660e01b8152600401602060405180830381865afa158015610792573d6000803e3d6000fd5b505050506040513d601f19601f820116820180604052508101906107b691906129a6565b10156107ef5760405162461bcd60e51b8152602060048201526008602482015267069732065726332360c41b60448201526064016106f3565b81156107fd576107fd6116a1565b60007f0000000000000000000000000000000000000000000000000000000000000000431161084c577f000000000000000000000000000000000000000000000000000000000000000061084e565b435b600e5490915061085e9085611faa565b600e55604080516060810182526001600160a01b03878116825260208201878152928201848152600f805460018082018355600083905294517f8d1108e10bcb7c27dddfc02ed9d693a074039d026cf4ea4240b40f7d581ac802600390920291820180546001600160a01b031916919095161790935593517f8d1108e10bcb7c27dddfc02ed9d693a074039d026cf4ea4240b40f7d581ac803830155517f8d1108e10bcb7c27dddfc02ed9d693a074039d026cf4ea4240b40f7d581ac80490910155905461092c91906129d5565b6001600160a01b03868116600081815260106020526040808220949094556002549351630e24707d60e11b815260048101929092527f00000000000000000000000000000000000000000000000000000000000000008316602483015292821660448201527f000000000000000000000000000000000000000000000000000000000000000090911690631c48e0fa906064016020604051808303816000875af11580156109de573d6000803e3d6000fd5b505050506040513d601f19601f82011682018060405250810190610a0291906129ec565b60025460405163095ea7b360e01b81526001600160a01b038084166004830152600019602483015292935091169063095ea7b3906044016020604051808303816000875af1158015610a58573d6000803e3d6000fd5b505050506040513d601f19601f82011682018060405250810190610a7c9190612a09565b506001600160a01b03808716600081815260126020908152604080832080549587166001600160a01b03199687168117909155835260138252808320805490951690931790935560149092529020805460ff19166001179055610ade81611fbd565b6040513381526001600160a01b0380881691908316907f9b8203efe7fe42185a7755b0510f87c8b693971d6a7c22520aaf683e6b1242619060200160405180910390a395945050505050565b60015460408051638da5cb5b60e01b8152905133926001600160a01b031691638da5cb5b9160048083019260209291908290030181865afa158015610b73573d6000803e3d6000fd5b505050506040513d601f19601f82011682018060405250810190610b9791906129ec565b6001600160a01b031614610bed5760405162461bcd60e51b815260206004820181905260248201527f4f776e61626c653a2063616c6c6572206973206e6f7420746865206f776e657260448201526064016106f3565b6001600160a01b038116610c365760405162461bcd60e51b815260206004820152601060248201526f3130b2103732bb9037b832b930ba37b960811b60448201526064016106f3565b600180546001600160a01b038381166001600160a01b0319831681179093556040519116919082907f3ccbb406b985dd76fe05e172b432487a2ff9fe4257642d3acc350f167cb1d57790600090a35050565b6000818152600c6020908152604091829020805483518184028101840190945280845260609392830182828015610ce857602002820191906000526020600020905b81546001600160a01b03168152600190910190602001808311610cca575b50505050509050919050565b600f8181548110610d0457600080fd5b60009182526020909120600390910201805460018201546002909201546001600160a01b03909116925083565b60405163430c208160e01b8152336004820152602481018290527f00000000000000000000000000000000000000000000000000000000000000006001600160a01b03169063430c208190604401602060405180830381865afa158015610d9c573d6000803e3d6000fd5b505050506040513d601f19601f82011682018060405250810190610dc09190612a09565b610ddc5760405162461bcd60e51b81526004016106f390612a26565b6000818152600d6020526040902054610e285760405162461bcd60e51b815260206004820152600e60248201526d075736520776569676874203e20360941b60448201526064016106f3565b610e3181611ff2565b60405163c1f0fb9f60e01b8152600481018290527f00000000000000000000000000000000000000000000000000000000000000006001600160a01b03169063c1f0fb9f90602401600060405180830381600087803b158015610e9357600080fd5b505af1158015610ea7573d6000803e3d6000fd5b5050505050565b60405163430c208160e01b8152336004820152602481018290527f00000000000000000000000000000000000000000000000000000000000000006001600160a01b03169063430c208190604401602060405180830381865afa158015610f19573d6000803e3d6000fd5b505050506040513d601f19601f82011682018060405250810190610f3d9190612a09565b610f595760405162461bcd60e51b81526004016106f390612a26565b6000818152600d6020526040902054610fa55760405162461bcd60e51b815260206004820152600e60248201526d075736520776569676874203e20360941b60448201526064016106f3565b6000818152600c602090815260408083208054825181850281018501909352808352919290919083018282801561100557602002820191906000526020600020905b81546001600160a01b03168152600190910190602001808311610fe7575b5050505050905060008151905060008167ffffffffffffffff81111561102d5761102d612805565b604051908082528060200260200182016040528015611056578160200160208202803683370190505b50905060005b828110156110e357600b6000868152602001908152602001600020600085838151811061108b5761108b612a48565b60200260200101516001600160a01b03166001600160a01b03168152602001908152602001600020548282815181106110c6576110c6612a48565b6020908102919091010152806110db81612a5e565b91505061105c565b506110ed84611ff2565b60405163c1f0fb9f60e01b8152600481018590527f00000000000000000000000000000000000000000000000000000000000000006001600160a01b03169063c1f0fb9f90602401600060405180830381600087803b15801561114f57600080fd5b505af1158015611163573d6000803e3d6000fd5b50505050611172848483612179565b50505050565b6001546040805163570ca73560e01b8152905133926001600160a01b03169163570ca7359160048083019260209291908290030181865afa1580156111c1573d6000803e3d6000fd5b505050506040513d601f19601f820116820180604052508101906111e591906129ec565b6001600160a01b03161461120b5760405162461bcd60e51b81526004016106f390612a79565b6003829055801561121e5761121e6116a1565b5050565b7f00000000000000000000000000000000000000000000000000000000000000004311801561125357506004544310155b156112ae57600754600354111561128957611285606461127f60506003546125ee90919063ffffffff16565b906125fa565b6003555b600754600354101561129c576007546003555b6005546112aa904390611faa565b6004555b6000600e54116112ea5760405162461bcd60e51b81526020600482015260076024820152660746f74616c3d360cc1b60448201526064016106f3565b6000600f82815481106112ff576112ff612a48565b906000526020600020906003020190508060020154431161131e575050565b80546001600160a01b039081166000818152601260205260408082205490516370a0823160e01b815293166004840152916370a0823190602401602060405180830381865afa158015611375573d6000803e3d6000fd5b505050506040513d601f19601f8201168201806040525081019061139991906129a6565b9050806113ab57504360029091015550565b6000600354116113ba57505050565b60006113db600e5461127f85600101546003546125ee90919063ffffffff16565b90506113f2601154826125ee90919063ffffffff16565b60025484546001600160a01b03908116600090815260126020526040908190205490516370a0823160e01b815290821660048201529116906370a0823190602401602060405180830381865afa158015611450573d6000803e3d6000fd5b505050506040513d601f19601f8201168201806040525081019061147491906129a6565b1015611172576002546011546000916001600160a01b0316906340c10f199030906114a09086906125ee565b6040516001600160e01b031960e085901b1681526001600160a01b03909216600483015260248201526044016020604051808303816000875af11580156114eb573d6000803e3d6000fd5b505050506040513d601f19601f8201168201806040525081019061150f9190612a09565b905080156115935783546001600160a01b039081166000908152601260205260409081902054600254915163b66503cf60e01b81529183166004830152602482018590529091169063b66503cf90604401600060405180830381600087803b15801561157a57600080fd5b505af115801561158e573d6000803e3d6000fd5b505050505b504360028401555050505b50565b60005b600f5481101561159e576000600f82815481106115c3576115c3612a48565b6000918252602080832060408051606081018252600390940290910180546001600160a01b039081168086526001830154868601526002909201548584015290855260129092529092205490925061161b9116611fbd565b508061162681612a5e565b9150506115a4565b6001546040805163570ca73560e01b815290516000926001600160a01b03169163570ca7359160048083019260209291908290030181865afa158015611678573d6000803e3d6000fd5b505050506040513d601f19601f8201168201806040525081019061169c91906129ec565b905090565b600f5460005b8181101561121e576116b881611222565b6116c181612a5e565b90506116a7565b61159e81611fbd565b3360009081526008602052604090205460ff168061170757506116f261162e565b6001600160a01b0316336001600160a01b0316145b61173d5760405162461bcd60e51b81526020600482015260076024820152660dcde40c2eae8d60cb1b60448201526064016106f3565b6117808261177a600f868154811061175757611757612a48565b906000526020600020906003020160010154600e5461260690919063ffffffff16565b90611faa565b600e8190555081600f848154811061179a5761179a612a48565b90600052602060002090600302016001018190555080156117bd576117bd6116a1565b505050565b6001546040805163570ca73560e01b8152905133926001600160a01b03169163570ca7359160048083019260209291908290030181865afa15801561180b573d6000803e3d6000fd5b505050506040513d601f19601f8201168201806040525081019061182f91906129ec565b6001600160a01b0316146118555760405162461bcd60e51b81526004016106f390612a79565b600655565b6001546040805163570ca73560e01b8152905133926001600160a01b03169163570ca7359160048083019260209291908290030181865afa1580156118a3573d6000803e3d6000fd5b505050506040513d601f19601f820116820180604052508101906118c791906129ec565b6001600160a01b0316146118ed5760405162461bcd60e51b81526004016106f390612a79565b601155565b60015460408051638da5cb5b60e01b815290516000926001600160a01b031691638da5cb5b9160048083019260209291908290030181865afa158015611678573d6000803e3d6000fd5b6001546040805163570ca73560e01b8152905133926001600160a01b03169163570ca7359160048083019260209291908290030181865afa158015611985573d6000803e3d6000fd5b505050506040513d601f19601f820116820180604052508101906119a991906129ec565b6001600160a01b0316146119cf5760405162461bcd60e51b81526004016106f390612a79565b6001600160a01b038116611a115760405162461bcd60e51b815260206004820152600960248201526830206164647265737360b81b60448201526064016106f3565b6001600160a01b03811660009081526008602052604090205460ff1615611a735760405162461bcd60e51b81526020600482015260166024820152754164647265737320616c72656164792065786973747360501b60448201526064016106f3565b6001600160a01b038116600081815260086020908152604091829020805460ff1916600117905590519182527f0a8bb31534c0ed46f380cb867bd5c803a189ced9a764e30b3a4991a9901d747491015b60405180910390a150565b600c6020528160005260406000208181548110611aea57600080fd5b6000918252602090912001546001600160a01b03169150829050565b6001546040805163570ca73560e01b8152905133926001600160a01b03169163570ca7359160048083019260209291908290030181865afa158015611b4f573d6000803e3d6000fd5b505050506040513d601f19601f82011682018060405250810190611b7391906129ec565b6001600160a01b031614611b995760405162461bcd60e51b81526004016106f390612a79565b600755565b6001546040805163570ca73560e01b8152905133926001600160a01b03169163570ca7359160048083019260209291908290030181865afa158015611be7573d6000803e3d6000fd5b505050506040513d601f19601f82011682018060405250810190611c0b91906129ec565b6001600160a01b031614611c315760405162461bcd60e51b81526004016106f390612a79565b600555565b600154604051631846d2f560e31b81526001600160a01b038381166004830152600092169063c23697a890602401602060405180830381865afa158015611c81573d6000803e3d6000fd5b505050506040513d601f19601f82011682018060405250810190611ca59190612a09565b92915050565b6001546040805163570ca73560e01b8152905133926001600160a01b03169163570ca7359160048083019260209291908290030181865afa158015611cf4573d6000803e3d6000fd5b505050506040513d601f19601f82011682018060405250810190611d1891906129ec565b6001600160a01b031614611d3e5760405162461bcd60e51b81526004016106f390612a79565b6001600160a01b03811660009081526008602052604090205460ff161515600114611d9e5760405162461bcd60e51b815260206004820152601060248201526f1059191c995cdcc81b9bc8195e1a5cdd60821b60448201526064016106f3565b6001600160a01b038116600081815260086020908152604091829020805460ff1916905590519182527f33d83959be2573f5453b12eb9d43b3499bc57d96bd2f067ba44803c859e811139101611ac3565b60005b815181101561121e57818181518110611e0d57611e0d612a48565b6020908102919091010151604051630c00007b60e41b81523360048201526001600160a01b039091169063c00007b090602401600060405180830381600087803b158015611e5a57600080fd5b505af1158015611e6e573d6000803e3d6000fd5b505050508080611e7d90612a5e565b915050611df2565b60405163430c208160e01b8152336004820152602481018690527f00000000000000000000000000000000000000000000000000000000000000006001600160a01b03169063430c208190604401602060405180830381865afa158015611ef0573d6000803e3d6000fd5b505050506040513d601f19601f82011682018060405250810190611f149190612a09565b611f305760405162461bcd60e51b81526004016106f390612a26565b828114611f3c57600080fd5b610ea7858585808060200260200160405190810160405280939291908181526020018383602002808284376000920191909152505060408051602080890282810182019093528882529093508892508791829185019084908082843760009201919091525061217992505050565b6000611fb68284612a9f565b9392505050565b6001600160a01b0380821660009081526013602090815260408083205490931680835260109091529190205461121e90611222565b6000818152600c6020526040812080549091805b8281101561213d57600084828154811061202257612022612a48565b6000918252602080832090910154888352600b825260408084206001600160a01b039092168085529190925291205490915080156121285761206382612612565b6001600160a01b0382166000908152600a60205260408120805483929061208b908490612ab7565b90915550506000878152600b602090815260408083206001600160a01b0386168452909152812080548392906120c2908490612ab7565b909155505060008113156120e1576120da8185612af6565b93506120ee565b6120eb8185612ab7565b93505b60408051888152602081018390527f6b3894ce60b9bbe9d93f1a4e6fc25b6b93cd8222e73ab6348d79c596f5b51de9910160405180910390a15b5050808061213590612a5e565b915050612006565b50806009600082825461215091906129d5565b90915550506000848152600d60209081526040808320839055600c909152812061117291612636565b61218283611ff2565b81516040516339f890b560e21b8152600481018590526000907f00000000000000000000000000000000000000000000000000000000000000006001600160a01b03169063e7e242d490602401602060405180830381865afa1580156121ec573d6000803e3d6000fd5b505050506040513d601f19601f8201168201806040525081019061221091906129a6565b90506000806000805b858110156122a357600087828151811061223557612235612a48565b60200260200101511361226a5786818151811061225457612254612a48565b602002602001015161226590612b37565b612285565b86818151811061227c5761227c612a48565b60200260200101515b61228f9085612af6565b93508061229b81612a5e565b915050612219565b50600083136122e85760405162461bcd60e51b81526020600482015260116024820152700746f74616c20776569676874206973203607c1b60448201526064016106f3565b60005b8581101561253757600088828151811061230757612307612a48565b60200260200101519050612343816001600160a01b03908116600090815260126020908152604080832054909316825260149052205460ff1690565b1561252457600085878a858151811061235e5761235e612a48565b60200260200101516123709190612b54565b61237a9190612bef565b60008c8152600b602090815260408083206001600160a01b0387168452909152902054909150156123df5760405162461bcd60e51b815260206004820152600f60248201526e0746f6b656e20706f6f6c206973203608c1b60448201526064016106f3565b8061241a5760405162461bcd60e51b815260206004820152600b60248201526a077656967687420697320360ac1b60448201526064016106f3565b61242382612612565b60008b8152600c6020908152604080832080546001810182559084528284200180546001600160a01b0319166001600160a01b0387169081179091558352600a90915281208054839290612478908490612af6565b909155505060008b8152600b602090815260408083206001600160a01b0386168452909152812080548392906124af908490612af6565b909155505060008113156124c2576124ce565b6124cb81612b37565b90505b6124d88185612af6565b93506124e48186612af6565b604080518d81526020810184905291965033917f1263a2295e53acd6ef8f655b8afc11fa0f2cf11925be7aa1757d741ef32a926c910160405180910390a2505b508061252f81612a5e565b9150506122eb565b5060008113156125bc5760405163fd4a77f160e01b8152600481018990527f00000000000000000000000000000000000000000000000000000000000000006001600160a01b03169063fd4a77f190602401600060405180830381600087803b1580156125a357600080fd5b505af11580156125b7573d6000803e3d6000fd5b505050505b81600960008282546125ce9190612a9f565b90915550506000978852600d602052604090972096909655505050505050565b6000611fb68284612c1d565b6000611fb68284612c3c565b6000611fb682846129d5565b6001600160a01b0380821660009081526012602052604090205461159e9116611fbd565b508054600082559060005260206000209081019061159e91905b808211156126645760008155600101612650565b5090565b6001600160a01b038116811461159e57600080fd5b803561268881612668565b919050565b60006020828403121561269f57600080fd5b8135611fb681612668565b801515811461159e57600080fd5b6000806000606084860312156126cd57600080fd5b83356126d881612668565b92506020840135915060408401356126ef816126aa565b809150509250925092565b60006020828403121561270c57600080fd5b5035919050565b6020808252825182820181905260009190848201906040850190845b818110156127545783516001600160a01b03168352928401929184019160010161272f565b50909695505050505050565b6000806040838503121561277357600080fd5b823591506020830135612785816126aa565b809150509250929050565b6000806000606084860312156127a557600080fd5b833592506020840135915060408401356126ef816126aa565b600080604083850312156127d157600080fd5b50508035926020909101359150565b600080604083850312156127f357600080fd5b82359150602083013561278581612668565b634e487b7160e01b600052604160045260246000fd5b6000602080838503121561282e57600080fd5b823567ffffffffffffffff8082111561284657600080fd5b818501915085601f83011261285a57600080fd5b81358181111561286c5761286c612805565b8060051b604051601f19603f8301168101818110858211171561289157612891612805565b6040529182528482019250838101850191888311156128af57600080fd5b938501935b828510156128d4576128c58561267d565b845293850193928501926128b4565b98975050505050505050565b60008083601f8401126128f257600080fd5b50813567ffffffffffffffff81111561290a57600080fd5b6020830191508360208260051b850101111561292557600080fd5b9250929050565b60008060008060006060868803121561294457600080fd5b85359450602086013567ffffffffffffffff8082111561296357600080fd5b61296f89838a016128e0565b9096509450604088013591508082111561298857600080fd5b50612995888289016128e0565b969995985093965092949392505050565b6000602082840312156129b857600080fd5b5051919050565b634e487b7160e01b600052601160045260246000fd5b6000828210156129e7576129e76129bf565b500390565b6000602082840312156129fe57600080fd5b8151611fb681612668565b600060208284031215612a1b57600080fd5b8151611fb6816126aa565b60208082526008908201526737379037bbb732b960c11b604082015260600190565b634e487b7160e01b600052603260045260246000fd5b6000600019821415612a7257612a726129bf565b5060010190565b6020808252600c908201526b3737ba1037b832b930ba37b960a11b604082015260600190565b60008219821115612ab257612ab26129bf565b500190565b60008083128015600160ff1b850184121615612ad557612ad56129bf565b6001600160ff1b0384018313811615612af057612af06129bf565b50500390565b600080821280156001600160ff1b0384900385131615612b1857612b186129bf565b600160ff1b8390038412811615612b3157612b316129bf565b50500190565b6000600160ff1b821415612b4d57612b4d6129bf565b5060000390565b60006001600160ff1b0381841382841380821686840486111615612b7a57612b7a6129bf565b600160ff1b6000871282811687830589121615612b9957612b996129bf565b60008712925087820587128484161615612bb557612bb56129bf565b87850587128184161615612bcb57612bcb6129bf565b505050929093029392505050565b634e487b7160e01b600052601260045260246000fd5b600082612bfe57612bfe612bd9565b600160ff1b821460001984141615612c1857612c186129bf565b500590565b6000816000190483118215151615612c3757612c376129bf565b500290565b600082612c4b57612c4b612bd9565b50049056fea264697066735822122005c4fce33ce3fea59ca862d845f1e81b710247a60107d8497e72d9e659182c0564736f6c634300080a0033",
  "linkReferences": {},
  "deployedLinkReferences": {}
}