{
  "_format": "hh-sol-artifact-1",
  "contractName": "Stock",
  "sourceName": "contracts/token/stock/Stock.sol",
  "abi": [
    {
      "inputs": [
        {
          "internalType": "address",
          "name": "_operatorMsg",
          "type": "address"
        },
        {
          "internalType": "string",
          "name": "_name",
          "type": "string"
        },
        {
          "internalType": "string",
          "name": "_symbol",
          "type": "string"
        },
        {
          "internalType": "address",
          "name": "_oracle",
          "type": "address"
        }
      ],
      "stateMutability": "nonpayable",
      "type": "constructor"
    },
    {
      "anonymous": false,
      "inputs": [
        {
          "indexed": true,
          "internalType": "address",
          "name": "owner",
          "type": "address"
        },
        {
          "indexed": true,
          "internalType": "address",
          "name": "spender",
          "type": "address"
        },
        {
          "indexed": false,
          "internalType": "uint256",
          "name": "value",
          "type": "uint256"
        }
      ],
      "name": "Approval",
      "type": "event"
    },
    {
      "anonymous": false,
      "inputs": [
        {
          "indexed": false,
          "internalType": "address",
          "name": "addr",
          "type": "address"
        }
      ],
      "name": "FRAXAddressSet",
      "type": "event"
    },
    {
      "anonymous": false,
      "inputs": [
        {
          "indexed": true,
          "internalType": "address",
          "name": "from",
          "type": "address"
        },
        {
          "indexed": true,
          "internalType": "address",
          "name": "to",
          "type": "address"
        },
        {
          "indexed": false,
          "internalType": "uint256",
          "name": "amount",
          "type": "uint256"
        }
      ],
      "name": "FXSBurned",
      "type": "event"
    },
    {
      "anonymous": false,
      "inputs": [
        {
          "indexed": true,
          "internalType": "address",
          "name": "from",
          "type": "address"
        },
        {
          "indexed": true,
          "internalType": "address",
          "name": "to",
          "type": "address"
        },
        {
          "indexed": false,
          "internalType": "uint256",
          "name": "amount",
          "type": "uint256"
        }
      ],
      "name": "FXSMinted",
      "type": "event"
    },
    {
      "anonymous": false,
      "inputs": [
        {
          "indexed": false,
          "internalType": "address",
          "name": "account",
          "type": "address"
        }
      ],
      "name": "Paused",
      "type": "event"
    },
    {
      "anonymous": false,
      "inputs": [
        {
          "indexed": false,
          "internalType": "address",
          "name": "pool",
          "type": "address"
        }
      ],
      "name": "PoolAdded",
      "type": "event"
    },
    {
      "anonymous": false,
      "inputs": [
        {
          "indexed": false,
          "internalType": "address",
          "name": "pool",
          "type": "address"
        }
      ],
      "name": "PoolRemoved",
      "type": "event"
    },
    {
      "anonymous": false,
      "inputs": [
        {
          "indexed": true,
          "internalType": "address",
          "name": "oldOperator",
          "type": "address"
        },
        {
          "indexed": true,
          "internalType": "address",
          "name": "newOperator",
          "type": "address"
        }
      ],
      "name": "SetOperatorContract",
      "type": "event"
    },
    {
      "anonymous": false,
      "inputs": [
        {
          "indexed": true,
          "internalType": "address",
          "name": "from",
          "type": "address"
        },
        {
          "indexed": true,
          "internalType": "address",
          "name": "to",
          "type": "address"
        },
        {
          "indexed": false,
          "internalType": "uint256",
          "name": "value",
          "type": "uint256"
        }
      ],
      "name": "Transfer",
      "type": "event"
    },
    {
      "anonymous": false,
      "inputs": [
        {
          "indexed": false,
          "internalType": "address",
          "name": "account",
          "type": "address"
        }
      ],
      "name": "Unpaused",
      "type": "event"
    },
    {
      "inputs": [],
      "name": "GENESIS_SUPPLY",
      "outputs": [
        {
          "internalType": "uint256",
          "name": "",
          "type": "uint256"
        }
      ],
      "stateMutability": "view",
      "type": "function"
    },
    {
      "inputs": [
        {
          "internalType": "address",
          "name": "_pool",
          "type": "address"
        }
      ],
      "name": "addPool",
      "outputs": [],
      "stateMutability": "nonpayable",
      "type": "function"
    },
    {
      "inputs": [
        {
          "internalType": "address",
          "name": "owner",
          "type": "address"
        },
        {
          "internalType": "address",
          "name": "spender",
          "type": "address"
        }
      ],
      "name": "allowance",
      "outputs": [
        {
          "internalType": "uint256",
          "name": "",
          "type": "uint256"
        }
      ],
      "stateMutability": "view",
      "type": "function"
    },
    {
      "inputs": [
        {
          "internalType": "address",
          "name": "spender",
          "type": "address"
        },
        {
          "internalType": "uint256",
          "name": "amount",
          "type": "uint256"
        }
      ],
      "name": "approve",
      "outputs": [
        {
          "internalType": "bool",
          "name": "",
          "type": "bool"
        }
      ],
      "stateMutability": "nonpayable",
      "type": "function"
    },
    {
      "inputs": [
        {
          "internalType": "address",
          "name": "account",
          "type": "address"
        }
      ],
      "name": "balanceOf",
      "outputs": [
        {
          "internalType": "uint256",
          "name": "",
          "type": "uint256"
        }
      ],
      "stateMutability": "view",
      "type": "function"
    },
    {
      "inputs": [
        {
          "internalType": "uint256",
          "name": "amount",
          "type": "uint256"
        }
      ],
      "name": "burn",
      "outputs": [],
      "stateMutability": "nonpayable",
      "type": "function"
    },
    {
      "inputs": [
        {
          "internalType": "address",
          "name": "account",
          "type": "address"
        },
        {
          "internalType": "uint256",
          "name": "amount",
          "type": "uint256"
        }
      ],
      "name": "burnFrom",
      "outputs": [],
      "stateMutability": "nonpayable",
      "type": "function"
    },
    {
      "inputs": [
        {
          "internalType": "address",
          "name": "_target",
          "type": "address"
        }
      ],
      "name": "check",
      "outputs": [
        {
          "internalType": "bool",
          "name": "",
          "type": "bool"
        }
      ],
      "stateMutability": "view",
      "type": "function"
    },
    {
      "inputs": [],
      "name": "decimals",
      "outputs": [
        {
          "internalType": "uint8",
          "name": "",
          "type": "uint8"
        }
      ],
      "stateMutability": "view",
      "type": "function"
    },
    {
      "inputs": [
        {
          "internalType": "address",
          "name": "spender",
          "type": "address"
        },
        {
          "internalType": "uint256",
          "name": "subtractedValue",
          "type": "uint256"
        }
      ],
      "name": "decreaseAllowance",
      "outputs": [
        {
          "internalType": "bool",
          "name": "",
          "type": "bool"
        }
      ],
      "stateMutability": "nonpayable",
      "type": "function"
    },
    {
      "inputs": [
        {
          "internalType": "address",
          "name": "spender",
          "type": "address"
        },
        {
          "internalType": "uint256",
          "name": "addedValue",
          "type": "uint256"
        }
      ],
      "name": "increaseAllowance",
      "outputs": [
        {
          "internalType": "bool",
          "name": "",
          "type": "bool"
        }
      ],
      "stateMutability": "nonpayable",
      "type": "function"
    },
    {
      "inputs": [
        {
          "internalType": "address",
          "name": "",
          "type": "address"
        }
      ],
      "name": "isPools",
      "outputs": [
        {
          "internalType": "bool",
          "name": "",
          "type": "bool"
        }
      ],
      "stateMutability": "view",
      "type": "function"
    },
    {
      "inputs": [
        {
          "internalType": "address",
          "name": "to",
          "type": "address"
        },
        {
          "internalType": "uint256",
          "name": "amount",
          "type": "uint256"
        }
      ],
      "name": "mint",
      "outputs": [
        {
          "internalType": "bool",
          "name": "",
          "type": "bool"
        }
      ],
      "stateMutability": "nonpayable",
      "type": "function"
    },
    {
      "inputs": [],
      "name": "name",
      "outputs": [
        {
          "internalType": "string",
          "name": "",
          "type": "string"
        }
      ],
      "stateMutability": "view",
      "type": "function"
    },
    {
      "inputs": [],
      "name": "operatable",
      "outputs": [
        {
          "internalType": "contract Operatable",
          "name": "",
          "type": "address"
        }
      ],
      "stateMutability": "view",
      "type": "function"
    },
    {
      "inputs": [],
      "name": "operator",
      "outputs": [
        {
          "internalType": "address",
          "name": "",
          "type": "address"
        }
      ],
      "stateMutability": "view",
      "type": "function"
    },
    {
      "inputs": [],
      "name": "oracle",
      "outputs": [
        {
          "internalType": "address",
          "name": "",
          "type": "address"
        }
      ],
      "stateMutability": "view",
      "type": "function"
    },
    {
      "inputs": [],
      "name": "owner",
      "outputs": [
        {
          "internalType": "address",
          "name": "",
          "type": "address"
        }
      ],
      "stateMutability": "view",
      "type": "function"
    },
    {
      "inputs": [],
      "name": "paused",
      "outputs": [
        {
          "internalType": "bool",
          "name": "",
          "type": "bool"
        }
      ],
      "stateMutability": "view",
      "type": "function"
    },
    {
      "inputs": [
        {
          "internalType": "uint256",
          "name": "",
          "type": "uint256"
        }
      ],
      "name": "poolAddress",
      "outputs": [
        {
          "internalType": "address",
          "name": "",
          "type": "address"
        }
      ],
      "stateMutability": "view",
      "type": "function"
    },
    {
      "inputs": [
        {
          "internalType": "address",
          "name": "_address",
          "type": "address"
        },
        {
          "internalType": "uint256",
          "name": "_amount",
          "type": "uint256"
        }
      ],
      "name": "poolBurnFrom",
      "outputs": [],
      "stateMutability": "nonpayable",
      "type": "function"
    },
    {
      "inputs": [
        {
          "internalType": "address",
          "name": "to",
          "type": "address"
        },
        {
          "internalType": "uint256",
          "name": "amount",
          "type": "uint256"
        }
      ],
      "name": "poolMint",
      "outputs": [],
      "stateMutability": "nonpayable",
      "type": "function"
    },
    {
      "inputs": [
        {
          "internalType": "address",
          "name": "_pool",
          "type": "address"
        }
      ],
      "name": "removePool",
      "outputs": [],
      "stateMutability": "nonpayable",
      "type": "function"
    },
    {
      "inputs": [
        {
          "internalType": "address",
          "name": "_address",
          "type": "address"
        }
      ],
      "name": "setFraxAddress",
      "outputs": [],
      "stateMutability": "nonpayable",
      "type": "function"
    },
    {
      "inputs": [
        {
          "internalType": "address",
          "name": "_oper",
          "type": "address"
        }
      ],
      "name": "setOperContract",
      "outputs": [],
      "stateMutability": "nonpayable",
      "type": "function"
    },
    {
      "inputs": [
        {
          "internalType": "address",
          "name": "_oracle",
          "type": "address"
        }
      ],
      "name": "setOracle",
      "outputs": [],
      "stateMutability": "nonpayable",
      "type": "function"
    },
    {
      "inputs": [],
      "name": "stableAdd",
      "outputs": [
        {
          "internalType": "address",
          "name": "",
          "type": "address"
        }
      ],
      "stateMutability": "view",
      "type": "function"
    },
    {
      "inputs": [],
      "name": "stablePoolAddressCount",
      "outputs": [
        {
          "internalType": "uint256",
          "name": "",
          "type": "uint256"
        }
      ],
      "stateMutability": "view",
      "type": "function"
    },
    {
      "inputs": [],
      "name": "symbol",
      "outputs": [
        {
          "internalType": "string",
          "name": "",
          "type": "string"
        }
      ],
      "stateMutability": "view",
      "type": "function"
    },
    {
      "inputs": [],
      "name": "togglePause",
      "outputs": [],
      "stateMutability": "nonpayable",
      "type": "function"
    },
    {
      "inputs": [],
      "name": "totalSupply",
      "outputs": [
        {
          "internalType": "uint256",
          "name": "",
          "type": "uint256"
        }
      ],
      "stateMutability": "view",
      "type": "function"
    },
    {
      "inputs": [
        {
          "internalType": "address",
          "name": "to",
          "type": "address"
        },
        {
          "internalType": "uint256",
          "name": "amount",
          "type": "uint256"
        }
      ],
      "name": "transfer",
      "outputs": [
        {
          "internalType": "bool",
          "name": "",
          "type": "bool"
        }
      ],
      "stateMutability": "nonpayable",
      "type": "function"
    },
    {
      "inputs": [
        {
          "internalType": "address",
          "name": "from",
          "type": "address"
        },
        {
          "internalType": "address",
          "name": "to",
          "type": "address"
        },
        {
          "internalType": "uint256",
          "name": "amount",
          "type": "uint256"
        }
      ],
      "name": "transferFrom",
      "outputs": [
        {
          "internalType": "bool",
          "name": "",
          "type": "bool"
        }
      ],
      "stateMutability": "nonpayable",
      "type": "function"
    }
  ],
  "bytecode": "0x60806040523480156200001157600080fd5b5060405162001f5138038062001f518339810160408190526200003491620003b5565b600080546001600160a01b0319166001600160a01b03861690811782556040518692869286928592907f3ccbb406b985dd76fe05e172b432487a2ff9fe4257642d3acc350f167cb1d577908290a35081516200009890600490602085019062000225565b508051620000ae90600590602084019062000225565b50506006805460ff1916905550506001600160a01b038116620001045760405162461bcd60e51b815260206004820152600960248201526830206164647265737360b81b60448201526064015b60405180910390fd5b600a80546001600160a01b0319166001600160a01b03831617905562000136336a52b7d2dcc80cd2e400000062000140565b50505050620004a9565b6001600160a01b038216620001985760405162461bcd60e51b815260206004820152601f60248201527f45524332303a206d696e7420746f20746865207a65726f2061646472657373006044820152606401620000fb565b8060036000828254620001ac919062000445565b90915550506001600160a01b03821660009081526001602052604081208054839290620001db90849062000445565b90915550506040518181526001600160a01b038316906000907fddf252ad1be2c89b69c2b068fc378daa952ba7f163c4a11628f55a4df523b3ef9060200160405180910390a35050565b82805462000233906200046c565b90600052602060002090601f016020900481019282620002575760008555620002a2565b82601f106200027257805160ff1916838001178555620002a2565b82800160010185558215620002a2579182015b82811115620002a257825182559160200191906001019062000285565b50620002b0929150620002b4565b5090565b5b80821115620002b05760008155600101620002b5565b80516001600160a01b0381168114620002e357600080fd5b919050565b634e487b7160e01b600052604160045260246000fd5b600082601f8301126200031057600080fd5b81516001600160401b03808211156200032d576200032d620002e8565b604051601f8301601f19908116603f01168101908282118183101715620003585762000358620002e8565b816040528381526020925086838588010111156200037557600080fd5b600091505b838210156200039957858201830151818301840152908201906200037a565b83821115620003ab5760008385830101525b9695505050505050565b60008060008060808587031215620003cc57600080fd5b620003d785620002cb565b60208601519094506001600160401b0380821115620003f557600080fd5b6200040388838901620002fe565b945060408701519150808211156200041a57600080fd5b506200042987828801620002fe565b9250506200043a60608601620002cb565b905092959194509250565b600082198211156200046757634e487b7160e01b600052601160045260246000fd5b500190565b600181811c908216806200048157607f821691505b60208210811415620004a357634e487b7160e01b600052602260045260246000fd5b50919050565b611a9880620004b96000396000f3fe608060405234801561001057600080fd5b50600436106101fb5760003560e01c806370a082311161011a578063a457c2d7116100ad578063d914cd4b1161007c578063d914cd4b1461041a578063da9da5261461042d578063dca9640814610440578063dd62ed3e14610453578063e6052c4f1461048c57600080fd5b8063a457c2d7146103d9578063a9059cbb146103ec578063c23697a8146103ff578063c4ae31681461041257600080fd5b80638ad5b7df116100e95780638ad5b7df146103af5780638da5cb5b146103b757806395d89b41146103bf57806399ec6765146103c757600080fd5b806370a082311461034d57806379cc6790146103765780637adbf973146103895780637dc0d1d01461039c57600080fd5b8063395093511161019257806348ee26a31161016157806348ee26a3146102fc57806353f9d9e214610327578063570ca7351461033a5780635c975abb1461034257600080fd5b806339509351146102b05780633b7d0946146102c357806340c10f19146102d657806342966c68146102e957600080fd5b80630f589d63116101ce5780630f589d631461026957806318160ddd1461027c57806323b872dd1461028e578063313ce567146102a157600080fd5b806306fdde0314610200578063095ea7b31461021e5780630a0c165a146102415780630c407d5614610256575b600080fd5b6102086104af565b604051610215919061178c565b60405180910390f35b61023161022c3660046117f6565b610541565b6040519015158152602001610215565b61025461024f3660046117f6565b610559565b005b6102546102643660046117f6565b6105e5565b610254610277366004611822565b610660565b6003545b604051908152602001610215565b61023161029c366004611846565b610788565b60405160128152602001610215565b6102316102be3660046117f6565b6107ac565b6102546102d1366004611822565b6107eb565b6102316102e43660046117f6565b610a05565b6102546102f7366004611887565b610a4c565b60005461030f906001600160a01b031681565b6040516001600160a01b039091168152602001610215565b60095461030f906001600160a01b031681565b61030f610a59565b60065460ff16610231565b61028061035b366004611822565b6001600160a01b031660009081526001602052604090205490565b6102546103843660046117f6565b610ad6565b610254610397366004611822565b610aef565b600a5461030f906001600160a01b031681565b600754610280565b61030f610bca565b610208610c1e565b6102806a52b7d2dcc80cd2e400000081565b6102316103e73660046117f6565b610c2d565b6102316103fa3660046117f6565b610cbf565b61023161040d366004611822565b610ccd565b610254610d42565b610254610428366004611822565b610df2565b61030f61043b366004611887565b610fa3565b61025461044e366004611822565b610fcd565b6102806104613660046118a0565b6001600160a01b03918216600090815260026020908152604080832093909416825291909152205490565b61023161049a366004611822565b60086020526000908152604090205460ff1681565b6060600480546104be906118d9565b80601f01602080910402602001604051908101604052809291908181526020018280546104ea906118d9565b80156105375780601f1061050c57610100808354040283529160200191610537565b820191906000526020600020905b81548152906001019060200180831161051a57829003601f168201915b5050505050905090565b60003361054f8185856110d4565b5060019392505050565b3360009081526008602052604090205460ff1615156001146105965760405162461bcd60e51b815260040161058d90611914565b60405180910390fd5b6105a08282610ad6565b60405181815230906001600160a01b038416907fed0632d0be8a77d1cd861e2e5f035c6684bad17c6bd6850e2d3621c6542d140d906020015b60405180910390a35050565b3360009081526008602052604090205460ff1615156001146106195760405162461bcd60e51b815260040161058d90611914565b61062382826111f9565b6040518181526001600160a01b0383169030907fbe70a233924923d3d70cfd3c5c22c22f0a43c6df422cc029140e80684f7b70eb906020016105d9565b60005460408051638da5cb5b60e01b8152905133926001600160a01b031691638da5cb5b9160048083019260209291908290030181865afa1580156106a9573d6000803e3d6000fd5b505050506040513d601f19601f820116820180604052508101906106cd9190611955565b6001600160a01b0316146106f35760405162461bcd60e51b815260040161058d90611972565b6001600160a01b03811661073c5760405162461bcd60e51b815260206004820152601060248201526f3130b2103732bb9037b832b930ba37b960811b604482015260640161058d565b600080546001600160a01b0319166001600160a01b0383169081178255604051839282917f3ccbb406b985dd76fe05e172b432487a2ff9fe4257642d3acc350f167cb1d5779190a35050565b6000336107968582856112d8565b6107a185858561136a565b506001949350505050565b3360008181526002602090815260408083206001600160a01b038716845290915281205490919061054f90829086906107e69087906119bd565b6110d4565b60005460408051638da5cb5b60e01b8152905133926001600160a01b031691638da5cb5b9160048083019260209291908290030181865afa158015610834573d6000803e3d6000fd5b505050506040513d601f19601f820116820180604052508101906108589190611955565b6001600160a01b03161461087e5760405162461bcd60e51b815260040161058d90611972565b6001600160a01b0381166108a45760405162461bcd60e51b815260040161058d906119d5565b6001600160a01b03811660009081526008602052604090205460ff1615156001146109075760405162461bcd60e51b81526020600482015260136024820152721059191c995cdcc81b9bdb995e1a5cdd185b9d606a1b604482015260640161058d565b6001600160a01b0381166000908152600860205260408120805460ff191690555b6007548110156109c457816001600160a01b03166007828154811061094f5761094f6119f8565b6000918252602090912001546001600160a01b031614156109b25760006007828154811061097f5761097f6119f8565b9060005260206000200160006101000a8154816001600160a01b0302191690836001600160a01b031602179055506109c4565b806109bc81611a0e565b915050610928565b506040516001600160a01b03821681527f4106dfdaa577573db51c0ca93f766dbedfa0758faa2e7f5bcdb7c142be803c3f906020015b60405180910390a150565b3360009081526008602052604081205460ff161515600114610a395760405162461bcd60e51b815260040161058d90611914565b610a4383836111f9565b50600192915050565b610a563382611538565b50565b60008060009054906101000a90046001600160a01b03166001600160a01b031663570ca7356040518163ffffffff1660e01b8152600401602060405180830381865afa158015610aad573d6000803e3d6000fd5b505050506040513d601f19601f82011682018060405250810190610ad19190611955565b905090565b610ae18233836112d8565b610aeb8282611538565b5050565b60005460408051638da5cb5b60e01b8152905133926001600160a01b031691638da5cb5b9160048083019260209291908290030181865afa158015610b38573d6000803e3d6000fd5b505050506040513d601f19601f82011682018060405250810190610b5c9190611955565b6001600160a01b031614610b825760405162461bcd60e51b815260040161058d90611972565b6001600160a01b038116610ba85760405162461bcd60e51b815260040161058d906119d5565b600a80546001600160a01b0319166001600160a01b0392909216919091179055565b60008060009054906101000a90046001600160a01b03166001600160a01b0316638da5cb5b6040518163ffffffff1660e01b8152600401602060405180830381865afa158015610aad573d6000803e3d6000fd5b6060600580546104be906118d9565b3360008181526002602090815260408083206001600160a01b038716845290915281205490919083811015610cb25760405162461bcd60e51b815260206004820152602560248201527f45524332303a2064656372656173656420616c6c6f77616e63652062656c6f77604482015264207a65726f60d81b606482015260840161058d565b6107a182868684036110d4565b60003361054f81858561136a565b60008054604051631846d2f560e31b81526001600160a01b0384811660048301529091169063c23697a890602401602060405180830381865afa158015610d18573d6000803e3d6000fd5b505050506040513d601f19601f82011682018060405250810190610d3c9190611a29565b92915050565b60005460408051638da5cb5b60e01b8152905133926001600160a01b031691638da5cb5b9160048083019260209291908290030181865afa158015610d8b573d6000803e3d6000fd5b505050506040513d601f19601f82011682018060405250810190610daf9190611955565b6001600160a01b031614610dd55760405162461bcd60e51b815260040161058d90611972565b60065460ff1615610dea57610de861167e565b565b610de8611711565b60005460408051638da5cb5b60e01b8152905133926001600160a01b031691638da5cb5b9160048083019260209291908290030181865afa158015610e3b573d6000803e3d6000fd5b505050506040513d601f19601f82011682018060405250810190610e5f9190611955565b6001600160a01b031614610e855760405162461bcd60e51b815260040161058d90611972565b6001600160a01b038116610eab5760405162461bcd60e51b815260040161058d906119d5565b6001600160a01b03811660009081526008602052604090205460ff1615610f0d5760405162461bcd60e51b81526020600482015260166024820152754164647265737320616c72656164792065786973747360501b604482015260640161058d565b6001600160a01b0381166000818152600860209081526040808320805460ff191660019081179091556007805491820181559093527fa66cc928b5edb82af9bd49922954155ab7b0942694bea4ce44661d9a8736c68890920180546001600160a01b0319168417905590519182527f73cca62ab1b520c9715bf4e6c71e3e518c754e7148f65102f43289a7df0efea691016109fa565b60078181548110610fb357600080fd5b6000918252602090912001546001600160a01b0316905081565b60005460408051638da5cb5b60e01b8152905133926001600160a01b031691638da5cb5b9160048083019260209291908290030181865afa158015611016573d6000803e3d6000fd5b505050506040513d601f19601f8201168201806040525081019061103a9190611955565b6001600160a01b0316146110605760405162461bcd60e51b815260040161058d90611972565b6001600160a01b0381166110865760405162461bcd60e51b815260040161058d906119d5565b600b80546001600160a01b0319166001600160a01b0383169081179091556040519081527f9d7f371b4f9b6152ca00b1c57f64dae493904ecd303500c5d2245611178ad58f906020016109fa565b6001600160a01b0383166111365760405162461bcd60e51b8152602060048201526024808201527f45524332303a20617070726f76652066726f6d20746865207a65726f206164646044820152637265737360e01b606482015260840161058d565b6001600160a01b0382166111975760405162461bcd60e51b815260206004820152602260248201527f45524332303a20617070726f766520746f20746865207a65726f206164647265604482015261737360f01b606482015260840161058d565b6001600160a01b0383811660008181526002602090815260408083209487168084529482529182902085905590518481527f8c5be1e5ebec7d5bd14f71427d1e84f3dd0314c0f7b2291e5b200ac8c7c3b92591015b60405180910390a3505050565b6001600160a01b03821661124f5760405162461bcd60e51b815260206004820152601f60248201527f45524332303a206d696e7420746f20746865207a65726f206164647265737300604482015260640161058d565b806003600082825461126191906119bd565b90915550506001600160a01b0382166000908152600160205260408120805483929061128e9084906119bd565b90915550506040518181526001600160a01b038316906000907fddf252ad1be2c89b69c2b068fc378daa952ba7f163c4a11628f55a4df523b3ef9060200160405180910390a35050565b6001600160a01b03838116600090815260026020908152604080832093861683529290522054600019811461136457818110156113575760405162461bcd60e51b815260206004820152601d60248201527f45524332303a20696e73756666696369656e7420616c6c6f77616e6365000000604482015260640161058d565b61136484848484036110d4565b50505050565b6001600160a01b0383166113ce5760405162461bcd60e51b815260206004820152602560248201527f45524332303a207472616e736665722066726f6d20746865207a65726f206164604482015264647265737360d81b606482015260840161058d565b6001600160a01b0382166114305760405162461bcd60e51b815260206004820152602360248201527f45524332303a207472616e7366657220746f20746865207a65726f206164647260448201526265737360e81b606482015260840161058d565b6001600160a01b038316600090815260016020526040902054818110156114a85760405162461bcd60e51b815260206004820152602660248201527f45524332303a207472616e7366657220616d6f756e7420657863656564732062604482015265616c616e636560d01b606482015260840161058d565b6001600160a01b038085166000908152600160205260408082208585039055918516815290812080548492906114df9084906119bd565b92505081905550826001600160a01b0316846001600160a01b03167fddf252ad1be2c89b69c2b068fc378daa952ba7f163c4a11628f55a4df523b3ef8460405161152b91815260200190565b60405180910390a3611364565b6001600160a01b0382166115985760405162461bcd60e51b815260206004820152602160248201527f45524332303a206275726e2066726f6d20746865207a65726f206164647265736044820152607360f81b606482015260840161058d565b6001600160a01b0382166000908152600160205260409020548181101561160c5760405162461bcd60e51b815260206004820152602260248201527f45524332303a206275726e20616d6f756e7420657863656564732062616c616e604482015261636560f01b606482015260840161058d565b6001600160a01b038316600090815260016020526040812083830390556003805484929061163b908490611a4b565b90915550506040518281526000906001600160a01b038516907fddf252ad1be2c89b69c2b068fc378daa952ba7f163c4a11628f55a4df523b3ef906020016111ec565b60065460ff166116c75760405162461bcd60e51b815260206004820152601460248201527314185d5cd8589b194e881b9bdd081c185d5cd95960621b604482015260640161058d565b6006805460ff191690557f5db9ee0a495bf2e6ff9c91a7834c1ba4fdd244a5e8aa4e537bd38aeae4b073aa335b6040516001600160a01b03909116815260200160405180910390a1565b60065460ff16156117575760405162461bcd60e51b815260206004820152601060248201526f14185d5cd8589b194e881c185d5cd95960821b604482015260640161058d565b6006805460ff191660011790557f62e78cea01bee320cd4e420270b5ea74000d11b0c9f74754ebdbfc544b05a2586116f43390565b600060208083528351808285015260005b818110156117b95785810183015185820160400152820161179d565b818111156117cb576000604083870101525b50601f01601f1916929092016040019392505050565b6001600160a01b0381168114610a5657600080fd5b6000806040838503121561180957600080fd5b8235611814816117e1565b946020939093013593505050565b60006020828403121561183457600080fd5b813561183f816117e1565b9392505050565b60008060006060848603121561185b57600080fd5b8335611866816117e1565b92506020840135611876816117e1565b929592945050506040919091013590565b60006020828403121561189957600080fd5b5035919050565b600080604083850312156118b357600080fd5b82356118be816117e1565b915060208301356118ce816117e1565b809150509250929050565b600181811c908216806118ed57607f821691505b6020821081141561190e57634e487b7160e01b600052602260045260246000fd5b50919050565b60208082526021908201527f4f6e6c7920706f6f6c732063616e2063616c6c20746869732066756e6374696f6040820152603760f91b606082015260800190565b60006020828403121561196757600080fd5b815161183f816117e1565b6020808252818101527f4f776e61626c653a2063616c6c6572206973206e6f7420746865206f776e6572604082015260600190565b634e487b7160e01b600052601160045260246000fd5b600082198211156119d0576119d06119a7565b500190565b60208082526009908201526830206164647265737360b81b604082015260600190565b634e487b7160e01b600052603260045260246000fd5b6000600019821415611a2257611a226119a7565b5060010190565b600060208284031215611a3b57600080fd5b8151801515811461183f57600080fd5b600082821015611a5d57611a5d6119a7565b50039056fea264697066735822122052a787d4c18d804ced036f6f38b2310491dfbe90478b93977d3b3241bcdf6df464736f6c634300080a0033",
  "linkReferences": {},
  "deployedLinkReferences": {}
}