{
  "contractName": "SwapMining_v1",
  "abi": [
    {
      "inputs": [
        {
          "internalType": "address",
          "name": "_operatorMsg",
          "type": "address"
        },
        {
          "internalType": "contract ISwap",
          "name": "_swapToken",
          "type": "address"
        },
        {
          "internalType": "address",
          "name": "_factory",
          "type": "address"
        },
        {
          "internalType": "address",
          "name": "_router",
          "type": "address"
        },
        {
          "internalType": "uint256",
          "name": "_swapPerBlock",
          "type": "uint256"
        },
        {
          "internalType": "uint256",
          "name": "_startBlock",
          "type": "uint256"
        },
        {
          "internalType": "uint256",
          "name": "_period",
          "type": "uint256"
        }
      ],
      "stateMutability": "nonpayable",
      "type": "constructor"
    },
    {
      "anonymous": false,
      "inputs": [
        {
          "indexed": true,
          "internalType": "address",
          "name": "pool",
          "type": "address"
        },
        {
          "indexed": false,
          "internalType": "uint256",
          "name": "point",
          "type": "uint256"
        }
      ],
      "name": "AddPool",
      "type": "event"
    },
    {
      "anonymous": false,
      "inputs": [
        {
          "indexed": true,
          "internalType": "address",
          "name": "oldRouter",
          "type": "address"
        },
        {
          "indexed": true,
          "internalType": "address",
          "name": "newRouter",
          "type": "address"
        }
      ],
      "name": "ChangeRouter",
      "type": "event"
    },
    {
      "anonymous": false,
      "inputs": [
        {
          "indexed": true,
          "internalType": "address",
          "name": "oldOperator",
          "type": "address"
        },
        {
          "indexed": true,
          "internalType": "address",
          "name": "newOperator",
          "type": "address"
        }
      ],
      "name": "SetOperatorContract",
      "type": "event"
    },
    {
      "anonymous": false,
      "inputs": [
        {
          "indexed": true,
          "internalType": "address",
          "name": "pool",
          "type": "address"
        },
        {
          "indexed": false,
          "internalType": "uint256",
          "name": "point",
          "type": "uint256"
        }
      ],
      "name": "SetPool",
      "type": "event"
    },
    {
      "anonymous": false,
      "inputs": [
        {
          "indexed": true,
          "internalType": "address",
          "name": "account",
          "type": "address"
        },
        {
          "indexed": true,
          "internalType": "address",
          "name": "pair",
          "type": "address"
        },
        {
          "indexed": false,
          "internalType": "address",
          "name": "input",
          "type": "address"
        },
        {
          "indexed": false,
          "internalType": "address",
          "name": "output",
          "type": "address"
        },
        {
          "indexed": false,
          "internalType": "uint256",
          "name": "amountIn",
          "type": "uint256"
        },
        {
          "indexed": false,
          "internalType": "uint256",
          "name": "amountOut",
          "type": "uint256"
        }
      ],
      "name": "SwapMining",
      "type": "event"
    },
    {
      "inputs": [],
      "name": "factory",
      "outputs": [
        {
          "internalType": "address",
          "name": "",
          "type": "address"
        }
      ],
      "stateMutability": "view",
      "type": "function",
      "constant": true
    },
    {
      "inputs": [],
      "name": "minTokenReward",
      "outputs": [
        {
          "internalType": "uint256",
          "name": "",
          "type": "uint256"
        }
      ],
      "stateMutability": "view",
      "type": "function",
      "constant": true
    },
    {
      "inputs": [],
      "name": "mintPeriod",
      "outputs": [
        {
          "internalType": "uint256",
          "name": "",
          "type": "uint256"
        }
      ],
      "stateMutability": "view",
      "type": "function",
      "constant": true
    },
    {
      "inputs": [],
      "name": "operatable",
      "outputs": [
        {
          "internalType": "contract Operatable",
          "name": "",
          "type": "address"
        }
      ],
      "stateMutability": "view",
      "type": "function",
      "constant": true
    },
    {
      "inputs": [],
      "name": "operator",
      "outputs": [
        {
          "internalType": "address",
          "name": "",
          "type": "address"
        }
      ],
      "stateMutability": "view",
      "type": "function",
      "constant": true
    },
    {
      "inputs": [],
      "name": "owner",
      "outputs": [
        {
          "internalType": "address",
          "name": "",
          "type": "address"
        }
      ],
      "stateMutability": "view",
      "type": "function",
      "constant": true
    },
    {
      "inputs": [
        {
          "internalType": "address",
          "name": "",
          "type": "address"
        }
      ],
      "name": "pairOfPid",
      "outputs": [
        {
          "internalType": "uint256",
          "name": "",
          "type": "uint256"
        }
      ],
      "stateMutability": "view",
      "type": "function",
      "constant": true
    },
    {
      "inputs": [],
      "name": "period",
      "outputs": [
        {
          "internalType": "uint256",
          "name": "",
          "type": "uint256"
        }
      ],
      "stateMutability": "view",
      "type": "function",
      "constant": true
    },
    {
      "inputs": [],
      "name": "periodEndBlock",
      "outputs": [
        {
          "internalType": "uint256",
          "name": "",
          "type": "uint256"
        }
      ],
      "stateMutability": "view",
      "type": "function",
      "constant": true
    },
    {
      "inputs": [
        {
          "internalType": "uint256",
          "name": "",
          "type": "uint256"
        }
      ],
      "name": "poolInfo",
      "outputs": [
        {
          "internalType": "address",
          "name": "pair",
          "type": "address"
        },
        {
          "internalType": "uint256",
          "name": "quantity",
          "type": "uint256"
        },
        {
          "internalType": "uint256",
          "name": "totalQuantity",
          "type": "uint256"
        },
        {
          "internalType": "uint256",
          "name": "allocPoint",
          "type": "uint256"
        },
        {
          "internalType": "uint256",
          "name": "allocSwapTokenAmount",
          "type": "uint256"
        },
        {
          "internalType": "uint256",
          "name": "lastRewardBlock",
          "type": "uint256"
        }
      ],
      "stateMutability": "view",
      "type": "function",
      "constant": true
    },
    {
      "inputs": [],
      "name": "router",
      "outputs": [
        {
          "internalType": "address",
          "name": "",
          "type": "address"
        }
      ],
      "stateMutability": "view",
      "type": "function",
      "constant": true
    },
    {
      "inputs": [
        {
          "internalType": "uint256",
          "name": "_block",
          "type": "uint256"
        }
      ],
      "name": "setHalvingPeriod",
      "outputs": [],
      "stateMutability": "nonpayable",
      "type": "function"
    },
    {
      "inputs": [
        {
          "internalType": "uint256",
          "name": "_reward",
          "type": "uint256"
        }
      ],
      "name": "setMinTokenReward",
      "outputs": [],
      "stateMutability": "nonpayable",
      "type": "function"
    },
    {
      "inputs": [
        {
          "internalType": "uint256",
          "name": "_block",
          "type": "uint256"
        }
      ],
      "name": "setMintPeriod",
      "outputs": [],
      "stateMutability": "nonpayable",
      "type": "function"
    },
    {
      "inputs": [
        {
          "internalType": "address",
          "name": "_oper",
          "type": "address"
        }
      ],
      "name": "setOperContract",
      "outputs": [],
      "stateMutability": "nonpayable",
      "type": "function"
    },
    {
      "inputs": [
        {
          "internalType": "uint256",
          "name": "_newPerBlock",
          "type": "uint256"
        },
        {
          "internalType": "bool",
          "name": "_withUpdate",
          "type": "bool"
        }
      ],
      "name": "setTokenPerBlock",
      "outputs": [],
      "stateMutability": "nonpayable",
      "type": "function"
    },
    {
      "inputs": [],
      "name": "startBlock",
      "outputs": [
        {
          "internalType": "uint256",
          "name": "",
          "type": "uint256"
        }
      ],
      "stateMutability": "view",
      "type": "function",
      "constant": true
    },
    {
      "inputs": [],
      "name": "swapToken",
      "outputs": [
        {
          "internalType": "contract ISwap",
          "name": "",
          "type": "address"
        }
      ],
      "stateMutability": "view",
      "type": "function",
      "constant": true
    },
    {
      "inputs": [],
      "name": "targetToken",
      "outputs": [
        {
          "internalType": "address",
          "name": "",
          "type": "address"
        }
      ],
      "stateMutability": "view",
      "type": "function",
      "constant": true
    },
    {
      "inputs": [],
      "name": "tokenPerBlock",
      "outputs": [
        {
          "internalType": "uint256",
          "name": "",
          "type": "uint256"
        }
      ],
      "stateMutability": "view",
      "type": "function",
      "constant": true
    },
    {
      "inputs": [],
      "name": "totalAllocPoint",
      "outputs": [
        {
          "internalType": "uint256",
          "name": "",
          "type": "uint256"
        }
      ],
      "stateMutability": "view",
      "type": "function",
      "constant": true
    },
    {
      "inputs": [
        {
          "internalType": "uint256",
          "name": "",
          "type": "uint256"
        },
        {
          "internalType": "address",
          "name": "",
          "type": "address"
        }
      ],
      "name": "userInfo",
      "outputs": [
        {
          "internalType": "uint256",
          "name": "quantity",
          "type": "uint256"
        },
        {
          "internalType": "uint256",
          "name": "blockNumber",
          "type": "uint256"
        }
      ],
      "stateMutability": "view",
      "type": "function",
      "constant": true
    },
    {
      "inputs": [
        {
          "internalType": "uint256",
          "name": "_pid",
          "type": "uint256"
        },
        {
          "internalType": "address",
          "name": "_user",
          "type": "address"
        }
      ],
      "name": "pending",
      "outputs": [
        {
          "internalType": "uint256",
          "name": "",
          "type": "uint256"
        },
        {
          "internalType": "uint256",
          "name": "",
          "type": "uint256"
        }
      ],
      "stateMutability": "view",
      "type": "function",
      "constant": true
    },
    {
      "inputs": [
        {
          "internalType": "uint256",
          "name": "_pid",
          "type": "uint256"
        }
      ],
      "name": "getPoolInfo",
      "outputs": [
        {
          "internalType": "address",
          "name": "",
          "type": "address"
        },
        {
          "internalType": "address",
          "name": "",
          "type": "address"
        },
        {
          "internalType": "uint256",
          "name": "",
          "type": "uint256"
        },
        {
          "internalType": "uint256",
          "name": "",
          "type": "uint256"
        },
        {
          "internalType": "uint256",
          "name": "",
          "type": "uint256"
        },
        {
          "internalType": "uint256",
          "name": "",
          "type": "uint256"
        }
      ],
      "stateMutability": "view",
      "type": "function",
      "constant": true
    },
    {
      "inputs": [
        {
          "internalType": "address",
          "name": "pair",
          "type": "address"
        },
        {
          "internalType": "address",
          "name": "input",
          "type": "address"
        },
        {
          "internalType": "address",
          "name": "",
          "type": "address"
        },
        {
          "internalType": "uint256",
          "name": "amountIn",
          "type": "uint256"
        },
        {
          "internalType": "uint256",
          "name": "amountOut",
          "type": "uint256"
        }
      ],
      "name": "getQuantity",
      "outputs": [
        {
          "internalType": "uint256",
          "name": "",
          "type": "uint256"
        }
      ],
      "stateMutability": "view",
      "type": "function",
      "constant": true
    },
    {
      "inputs": [],
      "name": "poolLength",
      "outputs": [
        {
          "internalType": "uint256",
          "name": "",
          "type": "uint256"
        }
      ],
      "stateMutability": "view",
      "type": "function",
      "constant": true
    },
    {
      "inputs": [
        {
          "internalType": "uint256",
          "name": "_allocPoint",
          "type": "uint256"
        },
        {
          "internalType": "address",
          "name": "_pool",
          "type": "address"
        },
        {
          "internalType": "bool",
          "name": "_withUpdate",
          "type": "bool"
        }
      ],
      "name": "addPair",
      "outputs": [],
      "stateMutability": "nonpayable",
      "type": "function"
    },
    {
      "inputs": [
        {
          "internalType": "uint256",
          "name": "_pid",
          "type": "uint256"
        },
        {
          "internalType": "uint256",
          "name": "_allocPoint",
          "type": "uint256"
        },
        {
          "internalType": "bool",
          "name": "_withUpdate",
          "type": "bool"
        }
      ],
      "name": "setPair",
      "outputs": [],
      "stateMutability": "nonpayable",
      "type": "function"
    },
    {
      "inputs": [
        {
          "internalType": "address",
          "name": "newRouter",
          "type": "address"
        }
      ],
      "name": "setRouter",
      "outputs": [],
      "stateMutability": "nonpayable",
      "type": "function"
    },
    {
      "inputs": [
        {
          "internalType": "address",
          "name": "account",
          "type": "address"
        },
        {
          "internalType": "address",
          "name": "pair",
          "type": "address"
        },
        {
          "internalType": "address",
          "name": "input",
          "type": "address"
        },
        {
          "internalType": "address",
          "name": "output",
          "type": "address"
        },
        {
          "internalType": "uint256",
          "name": "amountIn",
          "type": "uint256"
        },
        {
          "internalType": "uint256",
          "name": "amountOut",
          "type": "uint256"
        }
      ],
      "name": "swap",
      "outputs": [
        {
          "internalType": "bool",
          "name": "",
          "type": "bool"
        }
      ],
      "stateMutability": "nonpayable",
      "type": "function"
    },
    {
      "inputs": [],
      "name": "massUpdatePools",
      "outputs": [],
      "stateMutability": "nonpayable",
      "type": "function"
    },
    {
      "inputs": [
        {
          "internalType": "uint256",
          "name": "_pid",
          "type": "uint256"
        }
      ],
      "name": "updatePool",
      "outputs": [
        {
          "internalType": "bool",
          "name": "",
          "type": "bool"
        }
      ],
      "stateMutability": "nonpayable",
      "type": "function"
    },
    {
      "inputs": [
        {
          "internalType": "address",
          "name": "account",
          "type": "address"
        }
      ],
      "name": "rewardInfo",
      "outputs": [
        {
          "internalType": "uint256",
          "name": "",
          "type": "uint256"
        }
      ],
      "stateMutability": "view",
      "type": "function",
      "constant": true
    },
    {
      "inputs": [
        {
          "internalType": "uint256",
          "name": "pid",
          "type": "uint256"
        }
      ],
      "name": "getReward",
      "outputs": [],
      "stateMutability": "nonpayable",
      "type": "function"
    },
    {
      "inputs": [],
      "name": "getReward",
      "outputs": [],
      "stateMutability": "nonpayable",
      "type": "function"
    }
  ],
  "bytecode": "0x60a060405267026db992a3b1800060065560006007553480156200002257600080fd5b506040516200271b3803806200271b833981810160405260e08110156200004857600080fd5b50805160208201516040808401516060850151608086015160a087015160c090970151600080546001600160a01b0319166001600160a01b03891690811782559551979896979496939592949192899289928792879287928792917f3ccbb406b985dd76fe05e172b432487a2ff9fe4257642d3acc350f167cb1d577908290a3506001600160a01b03841662000116576040805162461bcd60e51b815260206004820152600e60248201526d073776170546f6b656e20697320360941b604482015290519081900360640190fd5b600180546001600160a01b0319166001600160a01b03861617905560028390556080829052600481905562000158828262000253602090811b62001e3d17901c565b60035550506170806005555050506001600160a01b038516620001a7576040805162461bcd60e51b8152602060048201526002602482015261021360f41b604482015290519081900360640190fd5b6001600160a01b038416620001e8576040805162461bcd60e51b8152602060048201526002602482015261021360f41b604482015290519081900360640190fd5b600980546001600160a01b038088166001600160a01b03199283161790925560088054878416921691909117908190556040519116906000907f868d477d1f2aa07449951b6ecd423921fda432f90f37c85b0db8216a0ed41bac908290a350505050505050620002b5565b600082820183811015620002ae576040805162461bcd60e51b815260206004820152601b60248201527f536166654d6174683a206164646974696f6e206f766572666c6f770000000000604482015290519081900360640190fd5b9392505050565b60805161243c620002df60003980610dad5280610eb65280611c315280611c58525061243c6000f3fe608060405234801561001057600080fd5b50600436106102115760003560e01c8063570ca73511610125578063c0d78655116100ad578063e4c75c271161007c578063e4c75c2714610592578063ef78d4fd146105be578063f0027136146105c6578063f887ea4014610608578063f9d181f91461061057610211565b8063c0d7865514610536578063c45a01551461055c578063cbecf6b514610564578063dc73e49c1461058a57610211565b806393f1a40b116100f457806393f1a40b1461044e578063a631fd4914610493578063a64e3dd7146104b0578063aa70fb98146104fc578063b5ec5c991461051957610211565b8063570ca7351461042e578063630b5ba114610436578063812632ec1461043e5780638da5cb5b1461044657610211565b8063327107f7116101a857806348cd4cb11161017757806348cd4cb1146103c057806348ee26a3146103c85780634ade739b146103d05780634c498203146103f557806351eb05a6146103fd57610211565b8063327107f7146103845780633d18b912146103a85780634198709a146103b0578063442da82f146103b857610211565b806317caf6f1116101e457806317caf6f1146102d8578063190cf6c9146102e05780631c4b774b1461030b5780632f380b351461032857610211565b80630495de5014610216578063081e3eda1461024e5780630f589d63146102565780631526fe271461027e575b600080fd5b61023c6004803603602081101561022c57600080fd5b50356001600160a01b0316610644565b60408051918252519081900360200190f35b61023c610656565b61027c6004803603602081101561026c57600080fd5b50356001600160a01b031661065c565b005b61029b6004803603602081101561029457600080fd5b50356107c1565b604080516001600160a01b0390971687526020870195909552858501939093526060850191909152608084015260a0830152519081900360c00190f35b61023c610811565b61027c600480360360608110156102f657600080fd5b50803590602081013590604001351515610817565b61027c6004803603602081101561032157600080fd5b50356109a7565b6103456004803603602081101561033e57600080fd5b5035610a81565b604080516001600160a01b039788168152959096166020860152848601939093526060840191909152608083015260a082015290519081900360c00190f35b61038c610ca5565b604080516001600160a01b039092168252519081900360200190f35b61027c610cb4565b61023c610d9f565b61023c610da5565b61023c610dab565b61038c610dcf565b61027c600480360360408110156103e657600080fd5b50803590602001351515610dde565b61023c610eac565b61041a6004803603602081101561041357600080fd5b5035610eb2565b604080519115158252519081900360200190f35b61038c610feb565b61027c61106b565b61023c61108b565b61038c611091565b61047a6004803603604081101561046457600080fd5b50803590602001356001600160a01b03166110e0565b6040805192835260208301919091528051918290030190f35b61027c600480360360208110156104a957600080fd5b5035611104565b61041a600480360360c08110156104c657600080fd5b506001600160a01b0381358116916020810135821691604082013581169160608101359091169060808101359060a001356111c3565b61027c6004803603602081101561051257600080fd5b50356114a6565b61027c6004803603602081101561052f57600080fd5b5035611565565b61027c6004803603602081101561054c57600080fd5b50356001600160a01b0316611624565b61038c611777565b61023c6004803603602081101561057a57600080fd5b50356001600160a01b0316611786565b61038c611827565b61047a600480360360408110156105a857600080fd5b50803590602001356001600160a01b0316611836565b61023c6119b9565b61023c600480360360a08110156105dc57600080fd5b506001600160a01b038135811691602081013582169160408201351690606081013590608001356119bf565b61038c611a54565b61027c6004803603606081101561062657600080fd5b508035906001600160a01b0360208201351690604001351515611a63565b600b6020526000908152604090205481565b600c5490565b60005460408051638da5cb5b60e01b8152905133926001600160a01b031691638da5cb5b916004808301926020929190829003018186803b1580156106a057600080fd5b505afa1580156106b4573d6000803e3d6000fd5b505050506040513d60208110156106ca57600080fd5b50516001600160a01b031614610727576040805162461bcd60e51b815260206004820181905260248201527f4f776e61626c653a2063616c6c6572206973206e6f7420746865206f776e6572604482015290519081900360640190fd5b6001600160a01b038116610775576040805162461bcd60e51b815260206004820152601060248201526f3130b2103732bb9037b832b930ba37b960811b604482015290519081900360640190fd5b600080546001600160a01b0319166001600160a01b0383169081178255604051839282917f3ccbb406b985dd76fe05e172b432487a2ff9fe4257642d3acc350f167cb1d5779190a35050565b600c81815481106107d157600080fd5b60009182526020909120600690910201805460018201546002830154600384015460048501546005909501546001600160a01b0390941695509193909286565b60075481565b6000546040805163570ca73560e01b8152905133926001600160a01b03169163570ca735916004808301926020929190829003018186803b15801561085b57600080fd5b505afa15801561086f573d6000803e3d6000fd5b505050506040513d602081101561088557600080fd5b50516001600160a01b0316146108d1576040805162461bcd60e51b815260206004820152600c60248201526b3737ba1037b832b930ba37b960a11b604482015290519081900360640190fd5b80156108df576108df61106b565b61091c82610916600c86815481106108f357fe5b906000526020600020906006020160030154600754611ea090919063ffffffff16565b90611e3d565b60078190555081600c848154811061093057fe5b906000526020600020906006020160030181905550600c838154811061095257fe5b6000918252602091829020600690910201546040805185815290516001600160a01b03909216927f0c5d6229a23281ec74ba1780cbf310c75ca2c0fec09e64f619bf6c70832a962d92918290030190a2505050565b600080600c83815481106109b757fe5b60009182526020808320868452600d82526040808520338652909252922080546006909202909201925015610a60576109ef84610eb2565b506000610a1b8360010154610a1584600001548660040154611efd90919063ffffffff16565b90611f56565b82546001850154919250610a2f9190611ea0565b60018401556004830154610a439082611ea0565b600484015560008255436001830155610a5c8482611e3d565b9350505b60008311610a7057505050610a7e565b610a7a3384611fbd565b5050505b50565b6000806000806000806001600c8054905003871115610ae7576040805162461bcd60e51b815260206004820152601e60248201527f537761704d696e696e673a204e6f742066696e64207468697320706f6f6c0000604482015290519081900360640190fd5b6000600c8881548110610af657fe5b600091825260208083206040805160c081018252600690940290910180546001600160a01b031680855260018201548585015260028201548584015260038201546060860152600480830154608087015260059092015460a08601528251630dfe168160e01b8152925194965093630dfe16819383830193909290829003018186803b158015610b8557600080fd5b505afa158015610b99573d6000803e3d6000fd5b505050506040513d6020811015610baf57600080fd5b505182516040805163d21220a760e01b815290519293506000926001600160a01b039092169163d21220a791600480820192602092909190829003018186803b158015610bfb57600080fd5b505afa158015610c0f573d6000803e3d6000fd5b505050506040513d6020811015610c2557600080fd5b5051608084015160a085015191925090600090610c43904390611ea0565b90506000610c70600754610a158860600151610c6a86600254611efd90919063ffffffff16565b90611efd565b9050610c7c8382611e3d565b60408701516020880151606090980151969f959e50909c509a5094985092965090945050505050565b600a546001600160a01b031681565b600c54600090815b81811015610d80576000600c8281548110610cd357fe5b60009182526020808320858452600d82526040808520338652909252922080546006909202909201925015610d7657610d0b83610eb2565b506000610d318360010154610a1584600001548660040154611efd90919063ffffffff16565b82546001850154919250610d459190611ea0565b60018401556004830154610d599082611ea0565b600484015560008255436001830155610d728682611e3d565b9550505b5050600101610cbc565b5060008211610d90575050610d9d565b610d9a3383611fbd565b50505b565b60025481565b60035481565b7f000000000000000000000000000000000000000000000000000000000000000081565b6000546001600160a01b031681565b6000546040805163570ca73560e01b8152905133926001600160a01b03169163570ca735916004808301926020929190829003018186803b158015610e2257600080fd5b505afa158015610e36573d6000803e3d6000fd5b505050506040513d6020811015610e4c57600080fd5b50516001600160a01b031614610e98576040805162461bcd60e51b815260206004820152600c60248201526b3737ba1037b832b930ba37b960a11b604482015290519081900360640190fd5b8015610ea657610ea661106b565b50600255565b60055481565b60007f000000000000000000000000000000000000000000000000000000000000000043118015610ee557506003544310155b15610f3a576006546002541115610f1557610f116064610a156050600254611efd90919063ffffffff16565b6002555b6006546002541015610f28576006546002555b600454610f36904390611e3d565b6003555b6000600c8381548110610f4957fe5b9060005260206000209060060201905080600501544311610f6e576000915050610fe6565b600060025411610f82576000915050610fe6565b6000610f9b826005015443611ea090919063ffffffff16565b90506000610fc2600754610a158560030154610c6a86600254611efd90919063ffffffff16565b6004840154909150610fd49082611e3d565b60048401555050436005909101555060015b919050565b60008060009054906101000a90046001600160a01b03166001600160a01b031663570ca7356040518163ffffffff1660e01b815260040160206040518083038186803b15801561103a57600080fd5b505afa15801561104e573d6000803e3d6000fd5b505050506040513d602081101561106457600080fd5b5051905090565b600c5460005b81811015610d9a5761108281610eb2565b50600101611071565b60065481565b60008060009054906101000a90046001600160a01b03166001600160a01b0316638da5cb5b6040518163ffffffff1660e01b815260040160206040518083038186803b15801561103a57600080fd5b600d6020908152600092835260408084209091529082529020805460019091015482565b6000546040805163570ca73560e01b8152905133926001600160a01b03169163570ca735916004808301926020929190829003018186803b15801561114857600080fd5b505afa15801561115c573d6000803e3d6000fd5b505050506040513d602081101561117257600080fd5b50516001600160a01b0316146111be576040805162461bcd60e51b815260206004820152600c60248201526b3737ba1037b832b930ba37b960a11b604482015290519081900360640190fd5b600555565b6008546000906001600160a01b0316331461120f5760405162461bcd60e51b81526004018080602001828103825260248152602001806123316024913960400191505060405180910390fd5b6001600160a01b0387166112545760405162461bcd60e51b81526004018080602001828103825260328152602001806123a56032913960400191505060405180910390fd5b6001600160a01b0385166112995760405162461bcd60e51b81526004018080602001828103825260308152602001806123d76030913960400191505060405180910390fd5b6001600160a01b0384166112de5760405162461bcd60e51b81526004018080602001828103825260318152602001806123006031913960400191505060405180910390fd5b6001600160a01b0386166113235760405162461bcd60e51b815260040180806020018281038252602f815260200180612355602f913960400191505060405180910390fd5b61132b610656565b6113375750600061149c565b6001600160a01b0386166000908152600b6020526040812054600c80549192918390811061136157fe5b6000918252602090912060069091020180549091506001600160a01b03898116911614158061139257506003810154155b156113a25760009250505061149c565b6113ab82610eb2565b5060006113bb89898989896119bf565b9050806113ce576000935050505061149c565b60018201546113dd9082611e3d565b600183015560028201546113f19082611e3d565b60028301556001600160a01b03808a166000908152600b60209081526040808320548352600d8252808320938e1683529290522080546114319083611e3d565b8155436001820155604080516001600160a01b038b811682528a811660208301528183018a9052606082018990529151828d16928e16917fd3a775afdd3f8fe47f6be05cff9c75a4c9669858485f3c218be31bb124b0f272919081900360800190a360019450505050505b9695505050505050565b6000546040805163570ca73560e01b8152905133926001600160a01b03169163570ca735916004808301926020929190829003018186803b1580156114ea57600080fd5b505afa1580156114fe573d6000803e3d6000fd5b505050506040513d602081101561151457600080fd5b50516001600160a01b031614611560576040805162461bcd60e51b815260206004820152600c60248201526b3737ba1037b832b930ba37b960a11b604482015290519081900360640190fd5b600655565b6000546040805163570ca73560e01b8152905133926001600160a01b03169163570ca735916004808301926020929190829003018186803b1580156115a957600080fd5b505afa1580156115bd573d6000803e3d6000fd5b505050506040513d60208110156115d357600080fd5b50516001600160a01b03161461161f576040805162461bcd60e51b815260206004820152600c60248201526b3737ba1037b832b930ba37b960a11b604482015290519081900360640190fd5b600455565b6000546040805163570ca73560e01b8152905133926001600160a01b03169163570ca735916004808301926020929190829003018186803b15801561166857600080fd5b505afa15801561167c573d6000803e3d6000fd5b505050506040513d602081101561169257600080fd5b50516001600160a01b0316146116de576040805162461bcd60e51b815260206004820152600c60248201526b3737ba1037b832b930ba37b960a11b604482015290519081900360640190fd5b6001600160a01b0381166117235760405162461bcd60e51b815260040180806020018281038252602a8152602001806122d6602a913960400191505060405180910390fd5b600880546001600160a01b038381166001600160a01b03198316179283905560405191811692169082907f868d477d1f2aa07449951b6ecd423921fda432f90f37c85b0db8216a0ed41bac90600090a35050565b6009546001600160a01b031681565b600c546000908190815b8181101561181e576000600c82815481106117a757fe5b60009182526020808320858452600d825260408085206001600160a01b038c1686529092529220805460069092029092019250156118145760006118048360010154610a1584600001548660040154611efd90919063ffffffff16565b90506118108682611e3d565b9550505b5050600101611790565b50909392505050565b6001546001600160a01b031681565b600c5460009081908410611891576040805162461bcd60e51b815260206004820152601e60248201527f537761704d696e696e673a204e6f742066696e64207468697320706f6f6c0000604482015290519081900360640190fd5b600080600c86815481106118a157fe5b600091825260208083206040805160c081018252600690940290910180546001600160a01b03908116855260018083015486860152600283015486850152600383015460608701526004830154608087015260059092015460a08601528b8652600d8452828620908b168652835293819020815180830190925280548083529401549181019190915290925090156119ab57600061194c8360a0015143611ea090919063ffffffff16565b90506000611973600754610a158660600151610c6a86600254611efd90919063ffffffff16565b90506119a661199f8560200151610a158660000151610c6a868a60800151611e3d90919063ffffffff16565b8690611e3d565b945050505b519196919550909350505050565b60045481565b600080866001600160a01b0316630dfe16816040518163ffffffff1660e01b815260040160206040518083038186803b1580156119fb57600080fd5b505afa158015611a0f573d6000803e3d6000fd5b505050506040513d6020811015611a2557600080fd5b505190506001600160a01b038681169082161415611a465783915050611a4b565b829150505b95945050505050565b6008546001600160a01b031681565b6000546040805163570ca73560e01b8152905133926001600160a01b03169163570ca735916004808301926020929190829003018186803b158015611aa757600080fd5b505afa158015611abb573d6000803e3d6000fd5b505050506040513d6020811015611ad157600080fd5b50516001600160a01b031614611b1d576040805162461bcd60e51b815260206004820152600c60248201526b3737ba1037b832b930ba37b960a11b604482015290519081900360640190fd5b6001600160a01b038216611b78576040805162461bcd60e51b815260206004820152601960248201527f5f7061697220697320746865207a65726f206164647265737300000000000000604482015290519081900360640190fd5b6000611b82610656565b1115611c1f576001600160a01b0382166000908152600b6020526040902054158015611bde5750816001600160a01b0316600c600081548110611bc157fe5b60009182526020909120600690910201546001600160a01b031614155b611c1f576040805162461bcd60e51b815260206004820152600d60248201526c37b7363c9037b732903830b4b960991b604482015290519081900360640190fd5b8015611c2d57611c2d61106b565b60007f00000000000000000000000000000000000000000000000000000000000000004311611c7c577f0000000000000000000000000000000000000000000000000000000000000000611c7e565b435b600754909150611c8e9085611e3d565b6007556040805160c0810182526001600160a01b038581168252600060208301818152938301818152606084018981526080850183815260a08601888152600c8054600180820183559190965296517fdf6966c971051c3d54ec59162606531493a51404a002842f56009d7e5cf4a8c7600690960295860180546001600160a01b031916919097161790955595517fdf6966c971051c3d54ec59162606531493a51404a002842f56009d7e5cf4a8c884015590517fdf6966c971051c3d54ec59162606531493a51404a002842f56009d7e5cf4a8c9830155517fdf6966c971051c3d54ec59162606531493a51404a002842f56009d7e5cf4a8ca82015592517fdf6966c971051c3d54ec59162606531493a51404a002842f56009d7e5cf4a8cb840155517fdf6966c971051c3d54ec59162606531493a51404a002842f56009d7e5cf4a8cc90920191909155611de2610656565b6001600160a01b0385166000818152600b6020908152604091829020949093039093558251878152925190927ff5d252583cd714facf6cafc09e6ed202a7cb8f2ceec3d3b9102b12b0fe4d4be692908290030190a250505050565b600082820183811015611e97576040805162461bcd60e51b815260206004820152601b60248201527f536166654d6174683a206164646974696f6e206f766572666c6f770000000000604482015290519081900360640190fd5b90505b92915050565b600082821115611ef7576040805162461bcd60e51b815260206004820152601e60248201527f536166654d6174683a207375627472616374696f6e206f766572666c6f770000604482015290519081900360640190fd5b50900390565b600082611f0c57506000611e9a565b82820282848281611f1957fe5b0414611e975760405162461bcd60e51b81526004018080602001828103825260218152602001806123846021913960400191505060405180910390fd5b6000808211611fac576040805162461bcd60e51b815260206004820152601a60248201527f536166654d6174683a206469766973696f6e206279207a65726f000000000000604482015290519081900360640190fd5b818381611fb557fe5b049392505050565b611fc681612067565b600154604080516370a0823160e01b815230600482015290516000926001600160a01b0316916370a08231916024808301926020929190829003018186803b15801561201157600080fd5b505afa158015612025573d6000803e3d6000fd5b505050506040513d602081101561203b57600080fd5b505190508082111561204b578091505b600154612062906001600160a01b0316848461217d565b505050565b600154604080516370a0823160e01b815230600482015290516000926001600160a01b0316916370a08231916024808301926020929190829003018186803b1580156120b257600080fd5b505afa1580156120c6573d6000803e3d6000fd5b505050506040513d60208110156120dc57600080fd5b5051905081811015610d9a576001546005546001600160a01b03909116906340c10f1990309061210d908690611efd565b6040518363ffffffff1660e01b815260040180836001600160a01b0316815260200182815260200192505050602060405180830381600087803b15801561215357600080fd5b505af1158015612167573d6000803e3d6000fd5b505050506040513d6020811015610a7a57600080fd5b604080516001600160a01b038481166024830152604480830185905283518084039091018152606490920183526020820180516001600160e01b031663a9059cbb60e01b1781529251825160009485949389169392918291908083835b602083106121f95780518252601f1990920191602091820191016121da565b6001836020036101000a0380198251168184511680821785525050505050509050019150506000604051808303816000865af19150503d806000811461225b576040519150601f19603f3d011682016040523d82523d6000602084013e612260565b606091505b509150915081801561228e57508051158061228e575080806020019051602081101561228b57600080fd5b50515b6122ce576040805162461bcd60e51b815260206004820152600c60248201526b32b93916ba3930b739b332b960a11b604482015290519081900360640190fd5b505050505056fe537761704d696e696e673a206e657720726f7574657220697320746865207a65726f2061646472657373537761704d696e696e673a2074616b65722073776170206f757470757420697320746865207a65726f2061646472657373537761704d696e696e673a2063616c6c6572206973206e6f742074686520726f75746572537761704d696e696e673a2074616b65722073776170207061697220697320746865207a65726f2061646472657373536166654d6174683a206d756c7469706c69636174696f6e206f766572666c6f77537761704d696e696e673a2074616b65722073776170206163636f756e7420697320746865207a65726f2061646472657373537761704d696e696e673a2074616b6572207377617020696e70757420697320746865207a65726f2061646472657373a26469706673582212200fb2740093212f1266f4b68e7d63617c8a19c72b9cf647f2f2df125ceb6323b864736f6c63430007060033",
  "immutableReferences": {
    "6095": [
      {
        "length": 32,
        "start": 3501
      },
      {
        "length": 32,
        "start": 3766
      },
      {
        "length": 32,
        "start": 7217
      },
      {
        "length": 32,
        "start": 7256
      }
    ]
  },
  "source": "// SPDX-License-Identifier: MIT\npragma solidity =0.7.6;\n\nimport '@openzeppelin/contracts/token/ERC20/SafeERC20.sol';\nimport '@openzeppelin/contracts/math/SafeMath.sol';\nimport '@openzeppelin/contracts/access/Ownable.sol';\nimport '@openzeppelin/contracts/utils/EnumerableSet.sol';\n\nimport '@sheepdex/core/contracts/lib/SwapMath.sol';\nimport '@sheepdex/core/contracts/interfaces/ISpePool.sol';\n\nimport './interfaces/ISwap.sol';\nimport \"./interfaces/ISwapMining.sol\";\n\nimport './lib/OracleLibrary.sol';\nimport './TokenReward.sol';\n\n\ncontract SwapMining is TokenReward, ISwapMining {\n    using SafeMath for uint256;\n    using EnumerableSet for EnumerableSet.AddressSet;\n\n    event SwapMining(\n        address indexed account,\n        address indexed pair,\n        address input,\n        address output,\n        uint256 amountIn,\n        uint256 amountOut\n    );\n\n    event ChangeRouter(address indexed oldRouter, address indexed newRouter);\n\n    struct UserInfo {\n        uint256 quantity; // How many LP tokens the user has provided\n        uint256 blockNumber; // Last transaction block\n    }\n\n    struct PoolInfo {\n        address pair; // Trading pairs that can be mined\n        uint256 quantity; // Current amount of LPs\n        uint256 totalQuantity; // All quantity\n        uint256 allocPoint; // How many allocation points assigned to this pool\n        uint256 allocSwapTokenAmount; // How many token\n        uint256 lastRewardBlock; // Last transaction block\n    }\n\n    // Total allocation points\n    uint256 public totalAllocPoint = 0;\n    // router address\n    address public router;\n    // factory address\n    address public factory;\n\n    address public targetToken;\n    // pair corresponding pid\n    mapping(address => uint256) public pairOfPid;\n\n    PoolInfo[] public poolInfo;\n    mapping(uint256 => mapping(address => UserInfo)) public userInfo;\n\n    constructor(\n        address _operatorMsg,\n        ISwap _swapToken,\n        address _factory,\n        address _router,\n        uint256 _swapPerBlock,\n        uint256 _startBlock,\n        uint256 _period\n    ) TokenReward(_operatorMsg, _swapToken, _swapPerBlock, _startBlock, _period) {\n        require(_factory != address(0), \"!0\");\n        require(_router != address(0), \"!0\");\n        factory = _factory;\n        router = _router;\n        emit ChangeRouter(address(0), router);\n    }\n\n    modifier onlyRouter() {\n        require(msg.sender == router, 'SwapMining: caller is not the router');\n        _;\n    }\n\n    // Get rewards from users in the current pool\n    function pending(uint256 _pid, address _user) public view returns (uint256, uint256) {\n        require(_pid < poolInfo.length, 'SwapMining: Not find this pool');\n        uint256 userSub;\n        PoolInfo memory pool = poolInfo[_pid];\n        UserInfo memory user = userInfo[_pid][_user];\n        if (user.quantity > 0) {\n            uint256 mul = block.number.sub(pool.lastRewardBlock);\n            uint256 tokenReward = tokenPerBlock.mul(mul).mul(pool.allocPoint).div(totalAllocPoint);\n            userSub = userSub.add((pool.allocSwapTokenAmount.add(tokenReward)).mul(user.quantity).div(pool.quantity));\n        }\n        //swap available to users, User transaction amount\n        return (userSub, user.quantity);\n    }\n\n    // Get details of the pool\n    function getPoolInfo(uint256 _pid)\n    public\n    view\n    returns (\n        address,\n        address,\n        uint256,\n        uint256,\n        uint256,\n        uint256\n    )\n    {\n        require(_pid <= poolInfo.length - 1, 'SwapMining: Not find this pool');\n        PoolInfo memory pool = poolInfo[_pid];\n        address token0 = ISpePool(pool.pair).token0();\n        address token1 = ISpePool(pool.pair).token1();\n        uint256 tokenAmount = pool.allocSwapTokenAmount;\n        uint256 mul = block.number.sub(pool.lastRewardBlock);\n        uint256 tokenReward = tokenPerBlock.mul(mul).mul(pool.allocPoint).div(totalAllocPoint);\n        tokenAmount = tokenAmount.add(tokenReward);\n        //token0,token1,Pool remaining reward,Total /Current transaction volume of the pool\n        return (token0, token1, tokenAmount, pool.totalQuantity, pool.quantity, pool.allocPoint);\n    }\n\n    function getQuantity(\n        address pair,\n        address input,\n        address /** output **/,\n        uint256 amountIn,\n        uint256 amountOut) public view returns (uint256) {\n        address token0 = ISpePool(pair).token0();\n        if (input == token0) {\n            return amountIn;\n        }\n        return amountOut;\n    }\n\n    function poolLength() public view returns (uint256) {\n        return poolInfo.length;\n    }\n\n    function addPair(\n        uint256 _allocPoint,\n        address _pool,\n        bool _withUpdate\n    ) public onlyOperator {\n        require(_pool != address(0), '_pair is the zero address');\n        if (poolLength() > 0) {\n            require((pairOfPid[_pool] == 0)&&(address(poolInfo[0].pair) != _pool), \"only one pair\");\n\n        }\n        if (_withUpdate) {\n            massUpdatePools();\n        }\n        uint256 lastRewardBlock = block.number > startBlock ? block.number : startBlock;\n        totalAllocPoint = totalAllocPoint.add(_allocPoint);\n        poolInfo.push(\n            PoolInfo({\n        pair : _pool,\n        quantity : 0,\n        totalQuantity : 0,\n        allocPoint : _allocPoint,\n        allocSwapTokenAmount : 0,\n        lastRewardBlock : lastRewardBlock\n        })\n        );\n        pairOfPid[_pool] = poolLength() - 1;\n        emit AddPool(_pool, _allocPoint);\n    }\n\n    // Update the allocPoint of the pool\n    function setPair(\n        uint256 _pid,\n        uint256 _allocPoint,\n        bool _withUpdate\n    ) public onlyOperator {\n        if (_withUpdate) {\n            massUpdatePools();\n        }\n        totalAllocPoint = totalAllocPoint.sub(poolInfo[_pid].allocPoint).add(_allocPoint);\n        poolInfo[_pid].allocPoint = _allocPoint;\n        emit SetPool(poolInfo[_pid].pair, _allocPoint);\n    }\n\n    function setRouter(address newRouter) public onlyOperator {\n        require(newRouter != address(0), 'SwapMining: new router is the zero address');\n        address oldRouter = router;\n        router = newRouter;\n        emit ChangeRouter(oldRouter, router);\n    }\n\n    // swapMining only router\n    function swap(\n        address account,\n        address pair,\n        address input,\n        address output,\n        uint256 amountIn,\n        uint256 amountOut\n    ) public override onlyRouter returns (bool) {\n        require(account != address(0), 'SwapMining: taker swap account is the zero address');\n        require(input != address(0), 'SwapMining: taker swap input is the zero address');\n        require(output != address(0), 'SwapMining: taker swap output is the zero address');\n        require(pair != address(0), 'SwapMining: taker swap pair is the zero address');\n\n        if (poolLength() == 0) {\n            return false;\n        }\n        uint256 _pid = pairOfPid[pair];\n        PoolInfo storage pool = poolInfo[_pid];\n        // If it does not exist or the allocPoint is 0 then return\n        if (pool.pair != pair || pool.allocPoint <= 0) {\n            return false;\n        }\n\n        updatePool(_pid);\n        uint256 quantity = getQuantity(pair, input, output, amountIn, amountOut);\n        if (quantity == 0) {\n            return false;\n        }\n\n        pool.quantity = pool.quantity.add(quantity);\n        pool.totalQuantity = pool.totalQuantity.add(quantity);\n        UserInfo storage user = userInfo[pairOfPid[pair]][account];\n        user.quantity = user.quantity.add(quantity);\n        user.blockNumber = block.number;\n        emit SwapMining(account, pair, input, output, amountIn, amountOut);\n        return true;\n    }\n\n    // Update all pools Called when updating allocPoint and setting new blocks\n    function massUpdatePools() public override {\n        uint256 length = poolInfo.length;\n        for (uint256 pid = 0; pid < length; ++pid) {\n            updatePool(pid);\n        }\n    }\n\n    function updatePool(uint256 _pid) public reduceBlockReward returns (bool) {\n        PoolInfo storage pool = poolInfo[_pid];\n        if (block.number <= pool.lastRewardBlock) {\n            return false;\n        }\n        if (tokenPerBlock <= 0) {\n            return false;\n        }\n        // Calculate the rewards obtained by the pool based on the allocPoint\n        uint256 mul = block.number.sub(pool.lastRewardBlock);\n        uint256 tokenReward = tokenPerBlock.mul(mul).mul(pool.allocPoint).div(totalAllocPoint);\n        // Increase the number of tokens in the current pool\n        pool.allocSwapTokenAmount = pool.allocSwapTokenAmount.add(tokenReward);\n        pool.lastRewardBlock = block.number;\n        return true;\n    }\n\n    // The user withdraws all the transaction rewards of the pool\n    function getReward() override public {\n        uint256 userSub;\n        uint256 length = poolInfo.length;\n        for (uint256 pid = 0; pid < length; ++pid) {\n            PoolInfo storage pool = poolInfo[pid];\n            UserInfo storage user = userInfo[pid][msg.sender];\n            if (user.quantity > 0) {\n                updatePool(pid);\n                // The reward held by the user in this pool\n                uint256 userReward = pool.allocSwapTokenAmount.mul(user.quantity).div(pool.quantity);\n                pool.quantity = pool.quantity.sub(user.quantity);\n                pool.allocSwapTokenAmount = pool.allocSwapTokenAmount.sub(userReward);\n                user.quantity = 0;\n                user.blockNumber = block.number;\n                userSub = userSub.add(userReward);\n            }\n        }\n        if (userSub <= 0) {\n            return;\n        }\n        _safeTokenTransfer(msg.sender, userSub);\n    }\n\n    function rewardInfo(address account) public view returns (uint256) {\n        uint256 userSub;\n        uint256 length = poolInfo.length;\n        for (uint256 pid = 0; pid < length; ++pid) {\n            PoolInfo storage pool = poolInfo[pid];\n            UserInfo storage user = userInfo[pid][account];\n            if (user.quantity > 0) {\n                uint256 userReward = pool.allocSwapTokenAmount.mul(user.quantity).div(pool.quantity);\n                userSub = userSub.add(userReward);\n            }\n        }\n        return userSub;\n    }\n\n    // The user withdraws all the transaction rewards of one pool\n    function getReward(uint256 pid) public override {\n        uint256 userSub;\n        PoolInfo storage pool = poolInfo[pid];\n        UserInfo storage user = userInfo[pid][msg.sender];\n        if (user.quantity > 0) {\n            updatePool(pid);\n            // The reward held by the user in this pool\n            uint256 userReward = pool.allocSwapTokenAmount.mul(user.quantity).div(pool.quantity);\n            pool.quantity = pool.quantity.sub(user.quantity);\n            pool.allocSwapTokenAmount = pool.allocSwapTokenAmount.sub(userReward);\n            user.quantity = 0;\n            user.blockNumber = block.number;\n            userSub = userSub.add(userReward);\n        }\n        if (userSub <= 0) {\n            return;\n        }\n        _safeTokenTransfer(msg.sender, userSub);\n    }\n\n}\n",
  "sourcePath": "/Users/lxx/Desktop/web/spperiphery/contracts/SwapMining.sol",
  "compiler": {
    "name": "solc",
    "version": "0.7.6+commit.7338295f.Emscripten.clang"
  },
  "schemaVersion": "3.4.1",
  "updatedAt": "2021-12-06T09:24:46.946Z",
  "networkType": "ethereum",
  "devdoc": {
    "kind": "dev",
    "methods": {},
    "version": 1
  },
  "userdoc": {
    "kind": "user",
    "methods": {},
    "version": 1
  }
}